S011000048313038452D3133322E737265632A
S3150800000000000520B11800080D1900080D19000890
S315080000100D1900080D1900080D1900080000000048
S315080000200000000000000000000000000D19000894
S315080000300D190008000000000D1900089D0F0008A2
S315080000400D1900080D1900080D1900080D190008EA
S315080000500D1900080D1900080D1900080D190008DA
S315080000600D1900080D1900080D1900080D190008CA
S315080000700D1900080D1900080D1900080D190008BA
S315080000800D1900080D1900080D1900080D190008AA
S315080000900D1900080D1900080D1900080D1900089A
S315080000A00D1900080D1900080D1900080D1900088A
S315080000B00D1900080D1900080D1900080D1900087A
S315080000C00D1900080D1900080D1900080D1900086A
S315080000D00D1900080D1900080D1900080D1900085A
S315080000E00D1900080D1900080D1900080D1900084A
S315080000F00D1900080D1900080D1900080D1900083A
S315080001000D1900080D1900080D1900080D19000829
S315080001100D1900080D1900080D1900080D19000819
S315080001200D1900080D1900080D1900080D19000809
S315080001300D1900080D1900080D1900080D190008F9
S315080001400D1900080D1900080D1900080D190008E9
S315080001500D1900080D1900080D1900080D190008D9
S315080001600D1900080D1900080D1900080D190008C9
S315080001700D1900080D1900080D19000800000000E7
S315080001800D1900080D1900080D1900080D190008A9
S315080001900D1900080D1900080D1900080D19000899
S315080001A00D1900080D1900080D1900080D19000889
S315080001B00D1900080D1900080D1900080D19000879
S30D080001C00D1900080D190008CD
S315080001C810B5054C237833B9044B13B10448AFF37B
S315080001D800800123237010BDC80500200000000018
S315080001E88C6D0008084B10B51BB108490848AFF3D1
S315080001F800800848036803B910BD074B002BFBD0DD
S31508000208BDE81040184700BF00000000CC050020D4
S315080002188C6D0008C80500200000000080B487B06F
S3150800022800AF7860396007F1080300221A605A603F
S31508000238C3F8072000237B610023BB7407F1080372
S3150800024809337B6179681C4BA3FB0123DA0813463B
S315080002589B0013445B00CA1AD2B27B691A707B6981
S315080002681B783033DAB27B691A707B69013B7B618C
S315080002787B68114AA2FB0323DB087B607B68002B9B
S31508000288E0D17B6901337B6107E03B685A1C3A6019
S315080002987A69511C796112781A707B691B78002B68
S315080002A8F3D13B6800221A703B6818461C37BD46CE
S315080002B85DF8047B704700BFCDCCCCCC80B596B032
S315080002C800AFF8600B467A607B810023A7F85630A2
S315080002D80023A7F854300023FB8607F118031E22CB
S315080002E80021184606F08AFC00233B650023FB64B8
S315080002F80023A7F84A3000237B610023A7F8483073
S3150800030800237B6400233B640023FB63002387F8F0
S315080003183B30002387F83A30002387F839307B8941
S31508000328B3F5004F01D17B6859E1FB683B657B89CA
S315080003381B129BB203F003039BB201339BB2A7F8C7
S315080003485430B7F95430013B3A6D13441B785BB205
S31508000358002B0BDA7B8903F08003002B06D14FF0BC
S31508000368FF337B610123A7F8483004E000237B614B
S315080003780023A7F8483007F11403FB640FE03B6D28
S315080003881A78FB6C1A70FB6C0133FB643B6D0133FE
S315080003983B65B7F85430013B9BB2A7F85430B7F918
S315080003A85430002BEBD1B7F84830002B02D07B69C4
S315080003B85B427B6107F118030F337B647B69796CB1
S315080003C81846FFF72BFF38647B891B111BB203F00D
S315080003D80703FB86B7F93630002B30D0FB8EA7F813
S315080003E84A303B6C013B3B6515E03B6D01333A6D82
S315080003F812781A703B6D013B3B653A6D7B6C9A42E5
S3150800040802D23B6D30221A70B7F94A309BB2013BCB
S315080004189BB2A7F84A30B7F94A30002BE5DC3A6DA3
S315080004287B6C9A4201D23B6D7B643B6D01332E226D
S315080004381A703B6C01333B643B6C00221A70B7F8A0
S315080004484830002B06D07B6C013B7B642D2387F84C
S315080004583A300EE07B8903F40063002B06D07B6CE8
S31508000468013B7B642B2387F83A3002E0002387F8A0
S315080004783A30B7F90A3003F00F03A7F85630B7F839
S315080004885620396C7B6CCB1A9BB2D31A9BB2A7F849
S315080004984A30B7F94A30002B33DAB7F95630002B09
S315080004A804D17B6800221A707B6898E0B7F9563041
S315080004B85B423A6C13447B6497F83A30002B03D0B6
S315080004C87B6C97F83A201A707B6C3B6514E03B6D99
S315080004D85A1C3A651B782F2B07D93B6D5A1C3A6567
S315080004E81B78392B01D8012300E00023002B03D001
S315080004F83B6D013B3F221A703A6D3B6C9A42E6D334
S3150800050839E07B6CFB63202387F83B30B7F94A3020
S315080005185B427A6C13447B647B8903F48063002B03
S3150800052804D0302387F83B307B6CFB637B6C3B65D8
S3150800053897F83A30002B12D0B7F84A3001339BB2F5
S31508000548A7F84A300BE03B6D5A1C3A6597F83B20EA
S315080005581A70B7F84A30013B9BB2A7F84A30B7F980
S315080005684A30002BEFDC97F83A30002B03D0FB6BA8
S3150800057897F83A201A70002387F839307B8903F4EC
S315080005888053002B25D0802387F8393021E097F847
S315080005983930002B0FD07B6C1B782F2B0BD97B6C33
S315080005A81B78392B07D87B6C1A7897F83930134398
S315080005B8DAB27B6C1A707B685A1C7A607A6C511CA2
S315080005C8796412781A70B7F85630013B9BB2A7F8C7
S315080005D85630B7F95630002BD9DC7B68013B1846EC
S315080005E85837BD4680BD00BF80B500AF0D4B0E4AD3
S315080005F81A600C4B00221A710A4B00225A71094BD1
S3150800060800225A61074B00229A61064B03221A6296
S31508000618044801F01FFD0346002B00D0FEE700BF83
S3150800062880BD00BFE40500200030024080B586B0D2
S3150800063800AF786000233B610023BB600023FB60A2
S315080006480023FB75FFF7D0FF7B681B6819467B6894
S315080006585B689B08013B1A460E4801F05FFD034696
S31508000668BB607B681A687B685B681344043BFB605D
S31508000678FB681B683B61BA683B699A4202D1012349
S31508000688FB7501E00023FB75FB7D18461837BD4648
S3150800069880BD00BFE405002080B485B000AF78604F
S315080006A80B46FB700023FB600023BB607B681B6856
S315080006B8154A934220D17B68DB68FB6019E0FB7812
S315080006C89AB2FB681B889A4210D3FB789AB2FB68E1
S315080006D85B889A420AD8FB685A68FB78F9680988D9
S315080006E85B1ADB0013445B68BB6005E0FB689B6824
S315080006F8FB60FB68002BE2D1BB6818461437BD4679
S315080007085DF8047B704700BF4001010180B485B0DD
S3150800071800AF78600B46FB700023FB600023BB60C4
S315080007287B681B68144A93421FD17B68DB68FB60A9
S3150800073818E0FB789AB2FB681B889A420FD3FB78B5
S315080007489AB2FB685B889A4209D8FB685A68FB78AC
S31508000758F96809885B1ADB001344BB6005E0FB6887
S315080007689B68FB60FB68002BE3D1BB681846143707
S31508000778BD465DF8047B70474001010180B485B029
S3150800078800AF0346FB710023FB60FB79012B02D1FE
S31508000798064BFB6002E00023FB6000BFFB681846B7
S315080007A81437BD465DF8047B704700BFC8A6000825
S315080007B880B586B000AF03460A46FB711346BB717F
S315080007C800233B610023FB600023FB820023FB8296
S315080007D8FB791846FFF7D2FF38613B69002B0BD027
S315080007E8BB7919463869FFF791FFF860FB68002B53
S315080007F802D0FB681B88FB82B7F9163018461837EB
S31508000808BD4680BD80B584B000AF0346FB710023A2
S31508000818BB600023FB810023FB81FB791846FFF7A1
S31508000828ADFFB860BB68002B02D0BB689B88FB810C
S31508000838B7F90E3018461037BD4680BD80B400AFEC
S31508000848BFF34F8FBFF36F8F094B0022C3F85022AF
S31508000858074A074B5B6943F400335361BFF34F8F6D
S31508000868BFF36F8F00BFBD465DF8047B704700BFB6
S3150800087800ED00E080B485B000AF00237B6000235C
S31508000888FB600023BB601D4B0022C3F88420BFF31E
S315080008984F8F1A4BD3F880307B607B685B0BC3F3AA
S315080008A80E03FB607B68DB08C3F30903BB601349C7
S315080008B8FB685A0143F6E0731340BA689207134374
S315080008C8C1F86032BB685A1EBA60002BEFD1FB68C4
S315080008D85A1EFA60002BE5D1BFF34F8F074A074B1C
S315080008E85B6943F480335361BFF34F8FBFF36F8F50
S315080008F800BF1437BD465DF8047B704700ED00E07D
S3150800090880B588B000AF07F1080300221A605A605C
S315080009189A60DA601A610123FB77154A144B1B6B38
S3150800092843F004031363124B1B6B03F004037B6049
S315080009387B684FF40053BB600023FB6001233B61CF
S3150800094803237B6107F1080319460A4801F042FFA9
S315080009584FF40051074802F0E7F80346012B01D186
S315080009680023FB7797F91F3018462037BD4680BD08
S31508000978003802400008024080B588B000AF07F189
S31508000988080300221A605A609A60DA601A6101231D
S31508000998FB77144A134B1B6B43F004031363114B81
S315080009A81B6B03F004037B607B681023BB60002382
S315080009B8FB6001233B6103237B6107F108031946A2
S315080009C8094801F007FF1021074802F0ADF8034669
S315080009D8012B01D10023FB7797F91F3018462037DA
S315080009E8BD4680BD003802400008024080B588B080
S315080009F800AF07F1080300221A605A609A60DA60A5
S31508000A081A610123FB77154A144B1B6B43F0020343
S31508000A181363124B1B6B03F002037B607B684FF46E
S31508000A280053BB600023FB6001233B6103237B6102
S31508000A3807F1080319460A4801F0CCFE4FF400519D
S31508000A48074802F071F80346012B01D10023FB770A
S31508000A5897F91F3018462037BD4680BD0038024032
S31508000A680004024080B586B000AF786000237B6139
S31508000A7800233B617B681B6804333B613B691B6841
S31508000A883B613B697B617B681B681B68FB60FB688D
S31508000A9883F308887B69984700BF1837BD4680BD29
S31508000AA8B0B5AAB000AF002387F8A7300023C7F867
S31508000AB8A0300023C7F89C30002387F89B30964B54
S31508000AC807F184041D460FCD0FC495E8030020607E
S31508000AD8043421803B4684220021184606F08EF805
S31508000AE8002387F89B3009E097F89B308B4AD35C3C
S31508000AF82F2B97F89B30013387F89B3097F89B3054
S31508000B080F2BF1D900F06EF90346012B75D18448ED
S31508000B18FFF78CFD0346002B6BD0FFF7F1FE034663
S31508000B28012B29D17F4B1B6893F82D30012B04D153
S31508000B38FFF722FF0346012B0AD07A4B1B6893F866
S31508000B482D30002B18D1FFF751FF0346012B13D17F
S31508000B58744B1B6893F82430002B0DD07248FFF7A6
S31508000B6865FD0346002B03D06F48FFF77BFF47E078
S31508000B78022387F8A73043E0FFF7C2FE0346012B96
S31508000B8829D1684B1B6893F82D30012B04D1FFF740
S31508000B98F3FE0346012B0AD0624B1B6893F82D30E7
S31508000BA8002B18D1FFF722FF0346012B13D15D4B03
S31508000BB81B6893F82430002B0DD15C48FFF736FDE7
S31508000BC80346002B03D05948FFF74CFF18E00323C8
S31508000BD887F8A73014E05648FFF728FD0346002B88
S31508000BE803D05348FFF73EFF0AE0012387F8A730EA
S31508000BF806E0042387F8A73002E0052387F8A7301C
S31508000C0800F07AF900F0BEF901F03AF800F07CFE37
S31508000C180023C7F8A030474BC7F89C300DE0D7F833
S31508000C289C3000221A60D7F8A0300133C7F8A030E4
S31508000C38D7F89C300433C7F89C303A4B1B689B8A14
S31508000C481A46384B1B68DB8A03FB02F39A08D7F85F
S31508000C58A0309A42E3D800F079F808233B60A0232D
S31508000C687B610423FB610023FB623B46184603F0BD
S31508000C7815F908233B6080237B610223FB61002367
S31508000C88FB623B46184603F009F900F0A7F900F09D
S31508000C98E3FA00F0D7FD97F8A730012B08D107F13A
S31508000CA88403254A4FF4D671184600F00DFC2EE049
S31508000CB897F8A730022B08D107F184031F4A40F298
S31508000CC8B111184600F000FC21E097F8A730032B6D
S31508000CD808D107F184031A4A40F2B711184600F0FA
S31508000CE8F3FB14E097F8A730042B08D107F184031F
S31508000CF8144A40F2BD11184600F0E6FB07E007F172
S31508000D088403114A40F2C311184600F0DDFB00239C
S31508000D181846A837BD46B0BDA46D0008ECFF000804
S31508000D28000000209C000020100000201800002069
S31508000D3808000020000070C0A0000020B8000020AD
S31508000D48D0000020EC0000200401002080B592B0F5
S31508000D5800AF07F1340300221A605A609A60DA6015
S31508000D681A613B1D30220021184605F047FF01236A
S31508000D787B604FF48033BB600223FB614FF480032A
S31508000D883B6219237B624FF4D873BB620223FB626A
S31508000D9809233B633B1D184602F048FB0346002B14
S31508000DA800D0FEE702F0F4FA0346002B00D0FEE76F
S31508000DB80F237B630223BB630023FB634FF4A05313
S31508000DC83B644FF480537B6407F1340307211846C4
S31508000DD802F06EFE0346002B00D0FEE700BF483738
S31508000DE8BD4680BD80B485B000AF0123FB730023E0
S31508000DF8BB730023FB713E4BBB6058E00123FB73B2
S31508000E083C4B1B689A8ABB681B681B889A4201D0A8
S31508000E180023FB73374B1B68DA8ABB681B685B8839
S31508000E289A4201D00023FB73324B1B681A8BBB68A6
S31508000E381B689B889A4201D00023FB732D4B1B68BD
S31508000E485A8BBB681B68DB889A4201D00023FB7360
S31508000E58284B1B689A8BBB681B681B899A4201D06A
S31508000E680023FB73234B1B68DA8BBB681B685B89FB
S31508000E789A4201D00023FB731E4B1B681A8CBB6869
S31508000E881B689B899A4201D00023FB73194B1B6880
S31508000E985A8CBB681B68DB899A4201D00023FB730E
S31508000EA897F90F30012B07D0BB680433BB60BB68C2
S31508000EB81B68002BA2D100E000BF0E4B1B6893F8F5
S31508000EC82430002B05D00B4B1B6893F82430012BD4
S31508000ED801D10123BB73FA7BBB7B1340FB7197F9DE
S31508000EE8073018461437BD465DF8047B704700BFBF
S31508000EF8800000209C00002080B584B000AF3B46E7
S31508000F0800221A605A609A60DA6001F02BF8012309
S31508000F183B704FF000537B6011233B720323FB722F
S31508000F280023FB730123BB7300237B7300237B70A9
S31508000F380023BB7200237B7200233B733B4618468B
S31508000F4801F044F84FF040437B6019233B720123B4
S31508000F587B703B46184601F039F84FF0C0437B6072
S31508000F680023BB7319233B7202237B703B46184642
S31508000F7801F02CF8042001F00BF800BF1037BD4625
S31508000F8880BD00BF80B500AFFFF758FCFFF772FCBD
S31508000F9800BF80BD80B500AF00F0A2FE00BF80BDCF
S31508000FA880B400AFFEE700BF80B483B000AF034645
S31508000FB8FB71094B1B785BB223F00F035AB297F9FA
S31508000FC8073013435BB2DAB2034B1A7000BF0C370B
S31508000FD8BD465DF8047B70472401002080B500AF44
S31508000FE8794B00225A60784B00229A60764B002289
S31508000FF8DA60754B00221A61744B1B681B8B013B20
S31508001008714A5361714B1B68DB8B013B6E4A9361CE
S315080010186E4B1B681A8B6D4B1B685B8B13449BB214
S31508001028013B9BB21A46684BDA61684B1B68DA8B38
S31508001038664B1B681B8C13449BB2013B9BB21A4632
S31508001048614B1A62614B1B68DB8A1A465F4B1B6841
S31508001058DB8B13445D4A1268128C1344013B1A460B
S31508001068594B9A62594B1B689A8A584B1B681B8BB3
S3150800107813449AB2554B1B685B8B13449BB2013BCE
S315080010889BB21A46504B5A62504B1B68DA8A4F4B2A
S315080010981B68DB8B13449AB24C4B1B681B8C134496
S315080010A89AB24A4B1B685B8C13449BB2013B9BB2B2
S315080010B81A46454B1A63454B1B689A8A434B1B6865
S315080010C81B8B13449AB2414B1B685B8B13449AB229
S315080010D83E4B1B689B8B13449BB2013B9BB21A463B
S315080010E8394BDA62384B002283F83420364B002213
S315080010F883F83520344B002283F83620324B344A9D
S315080011081A60344B00221A60304B1B689B8A1A46B1
S31508001118304B5A602F4B00229A602C4B1B68DB8A8F
S315080011281A462C4BDA602B4B06221A61294B2A4A97
S315080011385A62284BFF225A61264BFF229A61254B91
S31508001148002283F83020234B002283F83120214BD4
S31508001158FF2283F832201F4B4FF4C062DA611D4B19
S3150800116807221A62194B1B689B8A1A46194B9A62F8
S31508001178164B1B68DB8A1A46164BDA62124801F0C8
S31508001188EDFC0346002B01D0FFF70AFF0E4B1B6840
S315080011980D4A1268526B42F001025A6301220D4940
S315080011A8094801F0B5FD0346002B01D0FFF7F8FE04
S315080011B8012310220949044801F022FE01210248A8
S315080011C801F0E4FD00BF80BD080600209C00002051
S315080011D800680140B0060020000070C02801002001
S315080011E880B485B000AF78600023FB600023BB603D
S315080011F87B68164A1360154B1B6842F210729342B5
S3150800120810DD42F21073BB60104B1B6841F288323E
S3150800121802FB03F30E4A82FB03125213DB17D31A97
S31508001228FB6005E04FF4FA73FB60084B1B68BB606C
S315080012384FF08042BB68D363064AFB68136400BF55
S315080012481437BD465DF8047B704700BF6801002067
S3150800125889B5F814000C004080B584B000AF8F4AF1
S315080012688E4B1B6C43F0010313648C4B1B6C03F009
S315080012780103FB60FB688A4B4FF080421A60884B73
S315080012882B225A60864B42F21072DA60844B00228F
S315080012981A61834B00229A60814804F02FFF03469F
S315080012A8002B01D000F00CF97E4B60221A607D4BAA
S315080012B800221A617B4B00229A607A4B0822DA6070
S315080012C8784B00225A6008227649754804F080FF50
S315080012D80346002B01D000F0F3F80821704804F003
S315080012E843FF0346002B01D000F0EAF86B4A6B4B24
S315080012F81B6B43F001031363684B1B6B03F0010375
S31508001308BB60BB68684B02225A60674B01229A6029
S31508001318654B0322DA60644B01221A61624B042288
S315080013281A606149614801F055FA5C4A5B4B1B6CC7
S3150800133843F002031364594B1B6C03F002037B60EA
S315080013487B685B4B5B4A1A60594B2B225A60584B91
S3150800135842F21072DA60564B00221A61544B002288
S315080013689A60534804F0CAFE0346002B01D000F0E1
S31508001378A7F84C4B60221A604A4B00221A61494B5F
S3150800138800229A60474B0822DA60464B00225A60C8
S3150800139800224449464804F01BFF0346002B01D0A7
S315080013A800F08EF80021424804F0DEFE0346002BC2
S315080013B801D000F085F83C4B02225A603A4B0122CC
S315080013C89A60394B0322DA60374B02221A61364B88
S315080013D840221A603449354801F0FCF92F4A2F4B48
S315080013E81B6C43F0080313642C4B1B6C03F00803AF
S315080013F83B603B68304B314A1A602F4B00225A60D3
S315080014082D4B41F28832DA602B4B00221A612A4B9F
S3150800141800229A60284804F071FE0346002B01D082
S3150800142800F04EF81F4B60221A601E4B04221A6100
S315080014381C4B02229A601B4B4FF4FA725A600C2214
S3150800144818491D4804F0C4FE0346002B01D000F0D5
S3150800145837F80C21184804F087FE0346002B01D0FC
S3150800146800F02EF8104B02225A600F4B02229A609F
S315080014780D4B0322DA600C4B02221A610A4B08222A
S315080014881A600949094801F0A5F94EF66020FFF7E0
S31508001498A7FE00BF1037BD4680BD00BF0038024012
S315080014A8E406002098070020B40700200000024040
S315080014B820070020000400405C070020000C0040BC
S315080014C880B400AFFEE700BF80B584B000AFF8600F
S315080014D8B9607A600220FFF767FD07F108030F4A2B
S315080014E84FF441711846FEF7E9FE0D4800F032F947
S315080014F8786800F02FF90B4800F02CF9F86800F026
S3150800150829F9094800F026F9044800F023F904489F
S3150800151800F020F9054800F01DF9FEE7C807002085
S315080015286C010020700100207C0100208801002041
S3150800153880B487B000AFF860B96011461A460B4602
S31508001548FB801346BB800023FB750023BB7500236D
S31508001558BB82BB8801339BB25B08BB820023FB7541
S315080015683AE00023BB7525E0FB681B781B015AB2D5
S315080015781F4B1B785BB213435BB2DAB2BB681A70AF
S31508001588BB680133BB60FB681B785BB223F00F03AB
S315080015985AB2174B1B785BB213435BB2DAB2BB6815
S315080015A81A70BB680133BB60BB7D0133BB75FB682A
S315080015B80133FB60BB7D9BB2BA8A9A42D4D80D4BDD
S315080015C81B689B8A1A46BB8A5B00D31ABA681344F7
S315080015D8BB60FB7D0133FB75FA7DB7F906309A4285
S315080015E8BFDB00BF1C37BD465DF8047B704700BFEC
S315080015F8240100209C00002080B586B000AF034671
S31508001608FB7100233B610023FB600023BB600023BA
S31508001618FB820023BB820120FFF7B0F8B860BB68DD
S31508001628002B00F08580FB790A2B14D1424B1B88C6
S3150800163801339AB2404B1A803F4B1A883F4B1B8896
S315080016489A4272D33C4B1B88013B9AB23A4B1A8092
S3150800165800F0B2F869E0FB790D2B03D1384B00226C
S315080016681A8065E0FB791946B868FFF715F8F86037
S31508001678FB68002B5BD0324B1A88324B1B8812FB4F
S3150800168803F3FB822C4B1A882F4B1B8812FB03F398
S31508001698BB82FB8A2B4A128813442C4A1268928A00
S315080016A893420FDB264B00221A800023FB82224B2B
S315080016B81B8801339AB2204B1A80234B1A88BB8A97
S315080016C81344BB82BB8A204A128813441F4A1268ED
S315080016D8D28A93420CDB1C4B1B88BA8AD31ABB8264
S315080016E8154B1B88013B9AB2134B1A8000F064F815
S315080016F8FB8A174A12681344BA8A14490968898AF8
S3150800170801FB02F213443B610F4B1B881AB20D4BBF
S315080017181B881BB23969F868FFF70AFF084B1B884C
S3150800172801339AB2064B1A8002E000BF00E000BFF8
S315080017381837BD4680BD00BFD4070020DC07002047
S31508001748D2070020D6070020D80700209C000020D2
S315080017582001002080B582B000AF786006E07B687B
S315080017685A1C7A601B781846FFF746FF7B681B7871
S31508001778002BF4D100BF0837BD4680BD80B582B0BE
S3150800178800AF0B4B1B88FB8002E02020FFF734FFD5
S31508001798074B1B881A46074B1B88013B9A42F4D30A
S315080017A8034AFB88138000BF0837BD4680BD00BFC3
S315080017B8D2070020DA07002080B584B000AF0023DE
S315080017C8FB600023BB6000237B601B4B1B681B4A1E
S315080017D8128811461A4A1268928A02FB01F21344C1
S315080017E8FB60154B1B68BB60154B1B68DA8A134BE5
S315080017F81B88B2FBF3F39BB2013B104A128802FB23
S3150800180803F30F4A1268928A02FB03F37B600AE025
S31508001818BB685A1CBA60FA68511CF96012781A70C3
S315080018287B68013B7B607B68002BF1D1FFF7A6FF3D
S3150800183800BF1037BD4680BD20010020D80700200C
S315080018489C00002080B500AF41210120FEF7B0FFBB
S3150800185803469AB20F4B1A800120FEF7D3FF0346B8
S315080018689AB20D4B1A800D4B1B689A8A094B1B882E
S31508001878B2FBF3F39AB20A4B1A80084B1B68DA8A4A
S31508001888054B1B88B2FBF3F39AB2064B1A8000BFC6
S3150800189880BD00BFD6070020D80700209C0000207E
S315080018A8DA070020DC070020DFF83CD0002103E037
S315080018B80E4B5B58435004310D480E4B42189A425A
S315080018C8F6D30D4A02E0002342F8043B0B4B9A4232
S315080018D8F9D30B490120086004F0DAFF05F066F928
S315080018E8FFF7DEF8704700000000052000A700088B
S315080018F800000020C8050020C8050020A808002008
S31508001908A4080020FEE7000080B500AF284B294A46
S315080019181A60294B02221A60274B07225A60264B5F
S3150800192804229A60244B0722DA60234B02221A61A2
S31508001938214B02225A61204B02229A611C4B002233
S315080019485A601B4B01229A60194B0422DA60184B1D
S3150800195820221A61164B40225A61154B4FF4C07261
S315080019689A61134B0022DA61114B4FF440621A62EE
S315080019780F4B4FF480525A620D4B00229A620C485C
S3150800198800F07EF80C490A4804F02EFB0346002BA3
S3150800199803D00A4B01221A7002E0084B00221A707B
S315080019A840F2036000F00CF8044B1B78184680BD1B
S315080019B8E0070020400100A0140800209401002038
S315080019C880B584B000AF78600023FB602A4B0122FB
S315080019D81A60294B10225A60274B01229A60264B17
S315080019E80022DA604FF6FF722349244804F03AFBCE
S315080019F8012000F08FF9204B02221A601E4B102294
S31508001A085A601D4B01229A601B4B0022DA604FF67A
S31508001A18FF721949194804F025FB174B03221A6067
S31508001A28154B10225A60144B08229A60124B002252
S31508001A38DA604FF6FF721049104804F013FB30239A
S31508001A48FB600D4B04221A600B4B10225A600A4B96
S31508001A5801229A60FB68084AD3604FF6FF72064966
S31508001A68064804F0FFFA7968044804F027FB00BF23
S31508001A781037BD4680BD00BF30080020E0070020AB
S31508001A8880B590B000AF786007F12C0300221A6081
S31508001A985A609A60DA601A61704A704B9B6B43F019
S31508001AA8010393636D4B9B6B03F00103BB62BB6A2F
S31508001AB86A4A6A4B1B6B43F480031363674B1B6BB9
S31508001AC803F480037B627B6A644A644B1B6B43F0AE
S31508001AD808031363614B1B6B03F008033B623B6AFD
S31508001AE85E4A5E4B1B6B43F0100313635B4B1B6B21
S31508001AF803F01003FB61FB69584A584B1B6B43F00C
S31508001B0820031363554B1B6B03F02003BB61BB69AA
S31508001B18524A524B1B6B43F0400313634F4B1B6BE4
S31508001B2803F040037B617B694C4A4C4B1B6B43F0C3
S31508001B3880031363494B1B6B03F080033B613B69C6
S31508001B48464A464B1B6B43F480731363434B1B6B24
S31508001B5803F48073FB60FB6802233B6301237B6302
S31508001B680223BB630C23FB634CF20373FB6207F186
S31508001B782C0319463A4800F02DFE4FF68373FB628C
S31508001B8807F12C031946374800F024FE4FF63F03A1
S31508001B98FB6207F12C031946334800F01BFE48F28E
S31508001BA83313FB6207F12C031946304800F012FE7E
S31508001BB84FF62C73FB6207F12C0319462C4800F0E4
S31508001BC809FE40F2FF63FB6207F12C031946294810
S31508001BD800F000FE284B00225A60274B80229A60A4
S31508001BE8254B4FF40072DA60234B4FF480621A6172
S31508001BF8214B4FF480525A611F4B4FF480429A6129
S31508001C081D4B0022DA611C4B4FF400321A621A4B3C
S31508001C1800225A62184B03229A62174B0022DA628C
S31508001C28154B00221A63144B144A1A607B68124A29
S31508001C381A63114A7B6893630F4800F0ADFC0E4897
S31508001C4800F0FEFB00220F21382000F055F9382055
S31508001C5800F06EF900BF4037BD4680BD0038024027
S31508001C68000C02400010024000140240001802400E
S31508001C78001C024000200240400800201064024070
S31508001C8880B500AF074A074B1B6843F40073136017
S31508001C98032000F025F90F2000F006F8002318465F
S31508001CA880BD00BF003C024080B582B000AF7860B6
S31508001CB8094B1B68094AA2FB03239B09184600F02F
S31508001CC845F9002279684FF0FF3000F015F900232E
S31508001CD818460837BD4680BD98010020D34D6210C6
S31508001CE880B400AF044B1B680133034A136000BF76
S31508001CF8BD465DF8047B7047A008002080B400AF95
S31508001D08034B1B681846BD465DF8047B704700BF41
S31508001D18A008002080B584B000AF78600023FB6077
S31508001D28FFF7ECFFF86000BFFFF7E8FF0246FB681D
S31508001D38D21A7B689A42F7D300BF1037BD4680BDD2
S31508001D4880B485B000AF78600023FB607B6803F039
S31508001D580703BB600B4BDB68FB60FA684FF6FF03AB
S31508001D681340FB60BB681A02FB681A43064B134309
S31508001D78FB60044AFB68D36000BF1437BD465DF8AC
S31508001D88047B704700ED00E00000FA0580B400AF58
S31508001D98044BDB6803F4E0631B0A1846BD465DF886
S31508001DA8047B704700ED00E080B483B000AF0346BB
S31508001DB83960FB7197F90730002B0BDA0D49FB7967
S31508001DC803F00F03043B3A68D2B21201D2B20B44AD
S31508001DD81A7609E0084997F907303A68D2B2120123
S31508001DE8D2B20B4483F8002300BF0C37BD465DF812
S31508001DF8047B704700ED00E000E100E080B489B09C
S31508001E0800AFF860B9607A60FB6803F00703FB6106
S31508001E180023BB6100237B61FB69C3F10703042B1D
S31508001E2828BF0423BB61FB690433062B02D9FB6967
S31508001E38033B00E000237B610122BB6902FA03F336
S31508001E485A1EBB681A407B699A4001217B6901FAC8
S31508001E5803F3591E7B680B40134318462437BD46BF
S31508001E685DF8047B704700BF80B582B000AF786024
S31508001E787B68013BB3F1807F01D301230FE00A4A4F
S31508001E887B68013B53600F214FF0FF30FFF78CFF4B
S31508001E98054B00229A60044B07221A60002318464D
S31508001EA80837BD4680BD00BF10E000E080B483B0A7
S31508001EB800AF0346FB71094997F907305B09FA79B8
S31508001EC802F01F02012000FA02F241F8232000BF9F
S31508001ED80C37BD465DF8047B704700BF00E100E09B
S31508001EE880B582B000AF78607868FFF729FF00BF31
S31508001EF80837BD4680BD00BF80B586B000AF03462B
S31508001F08B9607A60FB7300237B61FFF73FFF78614E
S31508001F187A68B9687869FFF771FF024697F90F304A
S31508001F2811461846FFF740FF00BF1837BD4680BD63
S31508001F3880B582B000AF0346FB7197F9073018469B
S31508001F48FFF7B4FF00BF0837BD4680BD80B582B02D
S31508001F5800AF78607868FFF787FF034618460837A2
S31508001F68BD4680BD80B400AFBFF35F8F064A064BF7
S31508001F785B6A23F480335362044B00225A6000BF1D
S31508001F88BD465DF8047B704700ED00E090ED00E083
S31508001F9880B483B000AF78600A4A7B6843F00103CF
S31508001FA85360094A084B5B6A43F480335362BFF3AC
S31508001FB84F8FBFF36F8F00BF0C37BD465DF8047BA4
S31508001FC8704700BF90ED00E000ED00E080B483B0F4
S31508001FD800AF78601E4A7B685B7893607B681B78DD
S31508001FE8002B28D01A4A7B685B68D36018497B6837
S31508001FF81B7B1A077B68DB7A1B061A437B689B7A66
S31508002008DB041A437B685B7B9B041A437B689B7BD0
S315080020185B041A437B68DB7B1B041A437B685B7A81
S315080020281B021A437B681B7A5B0013437A6812788B
S3150800203813430B6105E0064B0022DA60044B0022C5
S315080020481A6100BF0C37BD465DF8047B704700BFB0
S3150800205890ED00E080B582B000AF78607B68002B11
S3150800206801D1012353E07B685B7FDBB2002B04D1E7
S315080020787B6800221A7701F073F97B6802225A777F
S315080020887B681B79002B0CD17B681B68224A5A612E
S315080020987B681B687A681268926822F018029A6048
S315080020A80CE07B6899687B68DB681A46786800F0F4
S315080020B84DF90346002B01D0012328E07B685B799C
S315080020C8002B05D17B681B684FF0FF321A6104E0C4
S315080020D87B681B687A6812691A617B681B687A6864
S315080020E81268926822F060017A6852690A439A600F
S315080020F87B681B687A681268926822F080017A6899
S3150800210892690A439A607B6801225A77002318461F
S315080021180837BD4680BD00BFB71DC10480B586B067
S3150800212800AFF860B9607A6000237B6100233B61E1
S31508002138FB681B7F012B01D102233AE0FB680122C9
S315080021481A77FB6802225A77FB681B6A022B22D089
S31508002158032B02D0012B17D024E000237B610AE069
S31508002168FB681B687A699200B9680A4412681A609B
S315080021787B6901337B617A697B689A42F0D3FB688D
S315080021881B681B683B610DE07A68B968F86800F057
S3150800219815F8386106E07A68B968F86800F09CF8B6
S315080021A8386100BFFB6801225A77FB6800221A7754
S315080021B83B6918461837BD4680BD00BF80B487B04E
S315080021C800AFF860B9607A6000237B6100237B6101
S315080021D822E0FB681B687A699200B9680A44127893
S315080021E811067A6992000132B86802441278120414
S315080021F811437A6992000232B868024412781202C8
S315080022080A43796989000331B868014409780A4399
S315080022181A607B6901337B617B689A087B699A42F5
S31508002228D7D87B6803F00303002B4BD07B6803F0F1
S315080022380303012B08D1FB681B6819467B699B00B9
S31508002248BA6813441B780B707B6803F00303022BE8
S3150800225814D1FB681B6818467B699B00BA68134447
S315080022681B789BB21B029AB27B699B000133B9683B
S315080022780B441B789BB213439BB203807B6803F01D
S315080022880303032B1ED1FB681B6818467B699B0052
S31508002298BA6813441B789BB21B029AB27B699B00E7
S315080022A80133B9680B441B789BB213439BB203806E
S315080022B8FB681B6819467B699B000233BA68134496
S315080022C81B780B70FB681B681B6818461C37BD46CD
S315080022D85DF8047B704700BF80B487B000AFF8602C
S315080022E8B9607A6000237B6100237B6112E0FB6892
S315080022F81B687A699200B9680A44128812047969CF
S3150800230889000231B868014409880A431A607B695A
S3150800231801337B617B685A087B699A42E7D87B68F0
S3150800232803F00103002B08D0FB681B6819467B6974
S315080023389B00BA6813441B880B80FB681B681B68DC
S3150800234818461C37BD465DF8047B704780B487B0CD
S3150800235800AFF860B9607A601F237B6100BFBA686E
S315080023687B6922FA03F303F00103002B04D17B6986
S315080023785A1E7A61002BF2D17B68182B43D801A222
S3150800238852F823F00F2400080F2400080F24000829
S315080023980F2400080F2400080F2400080F2400083B
S315080023A80F240008052400080F2400080F24000835
S315080023B80F2400080F2400080F2400080F2400081B
S315080023C80F240008FB2300080F2400080F24000820
S315080023D80F2400080F2400080F2400080F240008FB
S315080023E80F240008F12300087B69062B0DD9012361
S315080023F81FE07B69072B0AD901231AE07B690F2B93
S3150800240807D9012315E000BF04E000BF02E000BFBA
S3150800241800E000BFFB681B68BA685A61FB681B685E
S31508002428FA681268926822F018017A680A439A606C
S31508002438002318461C37BD465DF8047B704700BF65
S3150800244880B586B000AF786000237B61FFF756FC3D
S3150800245838610023FB607B68002B01D1012395E0D6
S315080024687B68002283F834207B68022283F83520AB
S315080024787B681B687A681268126822F001021A607B
S315080024880FE0FFF73BFC02463B69D31A052B08D930
S315080024987B6820225A657B68032283F83520032344
S315080024A874E07B681B681B6803F00103002BE8D1FE
S315080024B87B681B681B687B617A69364B13407B61AE
S315080024C87B685A687B689B681A437B68DB681A438B
S315080024D87B681B691A437B685B691A437B689B6937
S315080024E81A437B68DB691A437B681B6A13437A6954
S315080024F813437B617B685B6A042B07D17B68DA6ABE
S315080025087B681B6B13437A6913437B617B681B687B
S315080025187A691A607B681B685B697B617B6923F04B
S3150800252807037B617B685B6A7A6913437B617B680F
S315080025385B6A042B13D17B689B6A7A6913437B61B0
S31508002548786800F0ADF80346002B08D07B6840226F
S315080025585A657B68012283F83520012316E07B68D3
S315080025681B687A695A61786800F064F80346FB6064
S315080025787B68DB6D3F229A40FB689A607B6800227D
S315080025885A657B68012283F83520002318461837D0
S31508002598BD4680BD3F8010F080B584B000AF786036
S315080025A80023FB607B68002B01D101233EE07B6892
S315080025B893F83530DBB2022B01D1022336E07B686B
S315080025C81B687A681268126822F001021A607B682A
S315080025D81B6800221A607B681B6800225A607B68A1
S315080025E81B6800229A607B681B680022DA607B6891
S315080025F81B6800221A617B681B6821225A61786861
S3150800260800F018F80346FB607B68DB6D3F229A40AA
S31508002618FB689A607B6800225A657B68002283F803
S3150800262835207B68002283F83420002318461037A3
S31508002638BD4680BD80B485B000AF78607B681B68EE
S31508002648DBB2103B134AA2FB03231B09FB60124AA1
S31508002658FB6813441B781A467B68DA65FB68032B04
S3150800266808D97B681B681A460C4B13401A1D7B68E9
S315080026789A6506E07B681B681A46084B13407A6811
S3150800268893657B689B6D18461437BD465DF8047BD1
S31508002698704700BFABAAAAAAD8A6000800FCFFFF85
S315080026A880B485B000AF78600023FB737B689B6AAB
S315080026B8BB607B689B69002B28D1BB68032B71D844
S315080026C801A252F823F000BFE1260008F326000805
S315080026D803270008AD2700087B68DB6A03F08073C8
S315080026E8002B61D00123FB735EE07B68DB6AB3F1DC
S315080026F8C07F5BD10123FB7358E07B68DB6A03F074
S315080027088073002B54D00123FB7351E07B689B69C7
S31508002718B3F5005F25D1BB68032B4BD801A252F845
S3150800272823F000BF3D27000843270008552700085F
S315080027385B2700080123FB7345E07B68DB6A03F027
S315080027488073002B38D00123FB7335E00123FB7314
S3150800275839E07B68DB6AB3F1C07F2FD10123FB73AD
S315080027682CE0BB68032B2BD801A252F823F000BF34
S31508002778892700088F270008952700089B2700083F
S315080027880123FB731FE00123FB731CE00123FB7382
S3150800279819E07B68DB6A03F08073002B12D00123EB
S315080027A8FB730FE000BF0EE000BF0CE000BF0AE0B5
S315080027B800BF08E000BF06E000BF04E000BF02E073
S315080027C800BF00E000BFFB7B18461437BD465DF81E
S315080027D8047B704780B489B000AF786039600023FD
S315080027E8FB6100237B6100233B610023BB61002357
S315080027F8FB6175E10122FB6902FA03F37B613B6819
S315080028081A687B6913403B613A697B699A4240F0CA
S3150800281864813B685B68022B03D03B685B68122BB4
S3150800282823D1FB69DA087B68083253F82230BB6182
S31508002838FB6903F007039B000F2202FA03F3DB4345
S31508002848BA691340BB613B681A69FB6903F0070359
S315080028589B0002FA03F3BA691343BB61FB69DA08FA
S315080028687B680832B96943F822107B681B68BB6124
S31508002878FB695B00032202FA03F3DB43BA691340D8
S31508002888BB613B685B6803F00302FB695B0002FAFD
S3150800289803F3BA691343BB617B68BA691A603B6874
S315080028A85B68012B0BD03B685B68022B07D03B683B
S315080028B85B68112B03D03B685B68122B30D17B68A9
S315080028C89B68BB61FB695B00032202FA03F3DB43DF
S315080028D8BA691340BB613B68DA68FB695B0002FAB0
S315080028E803F3BA691343BB617B68BA699A607B6864
S315080028F85B68BB610122FB6902FA03F3DB43BA6929
S315080029081340BB613B685B681B0903F00102FB695E
S3150800291802FA03F3BA691343BB617B68BA695A605A
S315080029287B68DB68BB61FB695B00032202FA03F379
S31508002938DB43BA691340BB613B689A68FB695B006D
S3150800294802FA03F3BA691343BB617B68BA69DA60AA
S315080029583B685B6803F08053002B00F0BE80654A2D
S31508002968644B5B6C43F480435364624B5B6C03F4BF
S315080029788043FB60FB68604AFB699B08023352F890
S315080029882330BB61FB6903F003039B000F2202FA9D
S3150800299803F3DB43BA691340BB617B68574A934222
S315080029A837D07B68564A934231D07B68554A93425A
S315080029B82BD07B68544A934225D07B68534A934266
S315080029C81FD07B68524A934219D07B68514A934272
S315080029D813D07B68504A93420DD07B684F4A93427E
S315080029E807D07B684E4A934201D1092312E00A238D
S315080029F810E008230EE007230CE006230AE0052367
S31508002A0808E0042306E0032304E0022302E0012386
S31508002A1800E00023FA6902F0030292009340BA69BB
S31508002A281343BB613449FB699B080233BA6941F809
S31508002A3823203C4B1B68BB613B69DB43BA691340DF
S31508002A48BB613B685B6803F48033002B03D0BA6923
S31508002A583B691343BB61334ABB691360314B5B68F7
S31508002A68BB613B69DB43BA691340BB613B685B687A
S31508002A7803F40033002B03D0BA693B691343BB61DF
S31508002A88284ABB695360274B9B68BB613B69DB4394
S31508002A98BA691340BB613B685B6803F48013002B73
S31508002AA803D0BA693B691343BB611E4ABB69936085
S31508002AB81C4BDB68BB613B69DB43BA691340BB61E6
S31508002AC83B685B6803F40013002B03D0BA693B69BB
S31508002AD81343BB61134ABB69D360FB690133FB61C6
S31508002AE8FB690F2B7FF686AE00BF2437BD465DF817
S31508002AF8047B704700380240003801400000024055
S31508002B080004024000080240000C0240001002407F
S31508002B180014024000180240001C0240002002402F
S31508002B2800240240003C014080B485B000AF7860BC
S31508002B380B467B800023FB737B681A697B881340E6
S31508002B48002B02D00123FB7301E00023FB73FB7BF8
S31508002B5818461437BD465DF8047B704780B584B0BF
S31508002B6800AF78600023FB600023BB607B68002BFE
S31508002B7801D10123C6E07B6893F8A130DBB2002BAC
S31508002B8805D17B68002283F8A02000F057FB7B68F4
S31508002B98022283F8A1207B681B687A681268926902
S31508002BA822F070429A617B681B687A681268916994
S31508002BB87A6850687A68926810437A68D2681043C7
S31508002BC87A68126902430A439A617B681A687B68BD
S31508002BD81B6899684D4B0B4093607B685B691B04BF
S31508002BE8FB607B681B687A68126891687A689069DE
S31508002BF8FA6802430A439A607B681A687B681B6806
S31508002C08D968424B0B40D3607B68DB691B04FB60C1
S31508002C187B681B687A681268D1687A68106AFA68E5
S31508002C2802430A43DA607B681A687B681B68196975
S31508002C38364B0B4013617B685B6A1B04FB607B6839
S31508002C481B687A68126811697A68906AFA68024392
S31508002C580A431A617B681A687B681B6859692B4B93
S31508002C680B4053617B68DB6A1B04FB607B681B6847
S31508002C787A68126851697A68106BFA6802430A43D7
S31508002C885A617B6893F835301B02FB607B6893F8BA
S31508002C9836301B04BB607B681B687A681268D26A80
S31508002CA802F07F42DA627B681B687A681268D16A22
S31508002CB8B868FA680243786890F8340002430A4309
S31508002CC8DA627B681B687A681268526B42F00402FB
S31508002CD85A637B681B687A681268526B42F002026C
S31508002CE85A637B681B687A681268926942F001021F
S31508002CF89A617B680022C3F8A4207B68012283F8BE
S31508002D08A120002318461037BD4680BD00F800F0FC
S31508002D18B0B584B000AFF860B9607A60FB6893F81C
S31508002D28A030012B01D102232CE0FB68012283F88D
S31508002D38A020FB68022283F8A120FA687B68342160
S31508002D4801FB03F3134403F13802BB6814461D4616
S31508002D580FCD0FC40FCD0FC40FCD0FC42B6823603A
S31508002D687A68B968F86800F0BFF8FB681B6801223A
S31508002D785A62FB68012283F8A120FB68002283F8BF
S31508002D88A020002318461037BD46B0BD80B483B0CE
S31508002D9800AF786039607B6893F8A030012B01D1C1
S31508002DA8022327E07B68012283F8A0207B68022299
S31508002DB883F8A1207B681B681A463B68DB01134425
S31508002DC884331A467B681B6819463B68DB010B4443
S31508002DD884331B6843F0100313607B681B68012261
S31508002DE85A627B68012283F8A1207B68002283F84F
S31508002DF8A020002318460C37BD465DF8047B7047AB
S31508002E0880B489B000AFF860B9607A603B60002387
S31508002E18FB610023BB6100237B61FB6893F8A03044
S31508002E28012B01D1022359E0FB68012283F8A0206F
S31508002E38FB68022283F8A1200023BB6141E0FA68F7
S31508002E483B68342101FB03F3134448331B68062BFC
S31508002E5814D1BA6913461B0113441A06BB681B68C2
S31508002E68DBB21A43BB681B6803F47F431A43BB6883
S31508002E781B6803F47F031343FB6110E0BB691A065A
S31508002E88BB681B68DBB21A43BB681B6803F47F433D
S31508002E981A43BB681B6803F47F031343FB61BB68CB
S31508002EA804337B617B69BB60FB681B681A463B6811
S31508002EB8DB01134484331A46FB691364BB6901337F
S31508002EC8BB61BA697B689A42B9D3FB68012283F861
S31508002ED8A120FB68002283F8A0200023184624377F
S31508002EE8BD465DF8047B704780B489B000AFF860CA
S31508002EF8B9607A600023FB610023BB6100237B610C
S31508002F08BB685A68FB681B68D968964B0B401B0C4C
S31508002F1813441B04FB61FB681B681A467B68DB01C4
S31508002F28134484331A46FB681B6819467B68DB0119
S31508002F380B4484335B6803F470435360FB681B686F
S31508002F481A467B68DB01134484331846BB681A683B
S31508002F58FB681B68D968834B0B401B0C13445A1C27
S31508002F68FB6913434360BB68DA68FB681B68DB6860
S31508002F78C3F30A0313441B04FB61FB681B681A4660
S31508002F887B68DB01134484331A46FB681B681946B9
S31508002F987B68DB010B4484339B6803F470439360B6
S31508002FA8FB681B681A467B68DB0113448433194699
S31508002FB8BB689A68FB681B68DB68C3F30A03134493
S31508002FC85A1CFB6913438B60FB681B681A467B68A7
S31508002FD8DB01134484331A46FB681B6819467B6869
S31508002FE8DB010B4484331B6923F007031361FB6871
S31508002FF81B681A467B68DB01134484331A46BB6888
S315080030081B691361BB6893F831301B02FB61BB6807
S3150800301893F832301B04BB61BB689B691B067B614E
S31508003028FB681B681A467B68DB01134484339B6973
S31508003038FB681B681A467B68DB01134484331A4607
S3150800304800239361FB681B681A467B68DB011344F7
S3150800305884331946BB6893F830301A46FB691A4315
S31508003068BB691A437B6913438B61FB681B681A465D
S315080030787B68DB01134484331A46FB681B681946C8
S315080030887B68DB010B4484335B6923F0FF035361D8
S31508003098FB681B681A467B68DB01134484331A46A7
S315080030A8BB685B695361FB681B681A467B68DB016A
S315080030B8134484331946FB681B681A467B68DB0188
S315080030C813448433DA69284B1340CB61FB681B68C1
S315080030D81A467B68DB01134484331946BB68DA69E8
S315080030E8BB681B6A1343CB61FB681B681A467B6877
S315080030F8DB01134484339B6AFB681B681A467B68A2
S31508003108DB01134484331A4600239362FB681B6861
S315080031181A467B68DB01134484331A46BB685B6A24
S315080031289362BB681B69002B02D10423FB611FE06D
S31508003138BB681B69012B02D10323FB6118E0BB6836
S315080031481B69042B0BD0BB681B69022B07D0BB680D
S315080031581B69032B03D0BB681B69072B06D10223FF
S31508003168FB6105E00000FF0FF8F8FFFF0123FB618C
S31508003178FB681B681A467B68DB01134484331A46C6
S31508003188FB681B6819467B68DB010B448433DB6ADA
S3150800319803F0E023D362FB681B681A467B68DB01E9
S315080031A8134484331846BB689B6AFA6902FB03F31F
S315080031B81A04BB685968BB681B68CB1AF96901FB0E
S315080031C803F303331343C362FB681B681A467B6819
S315080031D8DB01134484331946FB681B681A467B6867
S315080031E8DB01134484331A6B134B13400B63FB68D8
S315080031F81B681A467B68DB01134484331A46BB6886
S31508003208DB6A1363FB681B681A467B68DB01134491
S3150800321884331A46FB681B6819467B68DB010B442E
S3150800322884331B6843F00103136000BF2437BD4687
S315080032385DF8047B704700BF00F8FFFF80B58CB0C7
S3150800324800AF07F11C0300221A605A609A60DA6018
S315080032581A613F4A3E4B5B6C43F0806353643C4BB0
S315080032685B6C03F08063BB61BB69394A384B1B6BDF
S3150800327843F480731363364B1B6B03F480737B61CB
S315080032887B69334A324B1B6B43F400731363304B29
S315080032981B6B03F400733B613B692D4A2C4B1B6B74
S315080032A843F4806313632A4B1B6B03F48063FB6048
S315080032B8FB68274A264B1B6B43F001031363244B11
S315080032C81B6B03F00103BB60BB68214A204B1B6BD1
S315080032D843F0020313631E4B1B6B03F002037B6068
S315080032E87B684FF47043FB6100237B620223BB6251
S315080032F802233B620E23FB6207F11C031946154895
S31508003308FFF768FA4FF6FF73FB6100237B62022317
S31508003318BB6202233B620E23FB6207F11C031946B4
S315080033280D48FFF757FAFF23FB6100237B62022348
S31508003338BB6202233B620E23FB6207F11C03194694
S315080033480648FFF747FA00BF3037BD4680BD00BFBD
S3150800335800380240002002400024024000280240AB
S3150800336880B483B000AF094A084B1B6B43F48053FB
S315080033781363064B1B6B03F480537B607B6800BFA3
S315080033880C37BD465DF8047B704700BF003802401D
S3150800339880B582B000AF00237B60224A214B1B6CA4
S315080033A843F0805313641F4B1B6C03F080533B6038
S315080033B83B681D4A1C4B1B6843F480331360FEF7B1
S315080033C89DFC786009E0FEF799FC02467B68D31AEB
S315080033D8B3F57A7F01D9032320E0134B5B6803F41E
S315080033E88033002BEFD0104A0F4B1B6843F4003389
S315080033F81360FEF783FC786009E0FEF77FFC024657
S315080034087B68D31AB3F57A7F01D9032306E0064BFE
S315080034185B6803F40033002BEFD0002318460837FF
S31508003428BD4680BD003802400070004090B5A3B084
S3150800343800AF78600023C7F884307B681B6803F000
S315080034480103002B00F08A80A44B9B6803F00C0349
S31508003458042B0BD0A14B9B6803F00C03082B11D146
S315080034689E4B5B6803F48003002B0BD09B4B1B68B1
S3150800347803F40033002B70D07B685B68002B6CD193
S3150800348801230EE37B685B68B3F5803F06D1934A50
S31508003498924B1B6843F4803313602EE07B685B68A5
S315080034A8002B0CD18D4A8D4B1B6823F4803313608F
S315080034B88A4A8A4B1B6823F4802313601DE07B68BD
S315080034C85B68B3F5A02F0CD1844A844B1B6843F478
S315080034D880231360814A814B1B6843F48033136049
S315080034E80BE07E4A7D4B1B6823F4803313607B4AC6
S315080034F87A4B1B6823F4802313607B685B68002B70
S3150800350815D0FEF7FBFBC7F8840009E0FEF7F6FBC3
S315080035180246D7F88430D31A642B01D90323C0E2AC
S315080035286E4B1B6803F40033002BEFD016E0FEF74A
S31508003538E5FBC7F8840009E0FEF7E0FB0246D7F882
S315080035488430D31A642B01D90323AAE2634B1B6878
S3150800355803F40033002BEFD100E000BF7B681B683B
S3150800356803F00203002B00F0C1805C4B9B6803F054
S315080035780C03002B0BD0594B9B6803F00C03082B44
S3150800358844D1564B5B6803F48003002B3ED1534B5A
S315080035981B6803F00203002B05D07B68DB68012B48
S315080035A801D001237DE24D4C4C4B1B6823F0F802F1
S315080035B87B681969F8237B670023FB647B6F93FA9A
S315080035C8A3F3FB64FB6CFB650023BB6500237B65E3
S315080035D800233B651F23BB650FE0F86DBB6D20FA1A
S315080035E803F303F001037B657B6D002B08D13B6D64
S315080035F801333B65BB6D013BBB65BB6D002BECDA44
S315080036083B6D01FA03F3134323606FE07B68DB68BD
S31508003618002B4DD0314A314B1B6843F00103136028
S31508003628FEF76CFBC7F8840009E0FEF767FB02465D
S31508003638D7F88430D31A022B01D9032331E2274B52
S315080036481B6803F00203002BEFD0244C234B1B689E
S3150800365823F0F8027B681969F823FB670023FB63E4
S31508003668FB6F93FAA3F3FB63FB6BBB670023BB648F
S3150800367800237B6400233B641F23BB640FE0B86FF9
S31508003688BB6C20FA03F303F001037B647B6C002B05
S3150800369808D13B6C01333B64BB6C013BBB64BB6C18
S315080036A8002BECDA3B6C01FA03F3134323601DE0A5
S315080036B80A4A0A4B1B6823F001031360FEF71EFB30
S315080036C8C7F884000CE0FEF719FB0246D7F88430E1
S315080036D8D31A022B04D90323E3E100BF00380240BA
S315080036E8944B1B6803F00203002BECD17B681B681C
S315080036F803F00803002B3AD07B685B69002B1BD0C4
S315080037088C4A8C4B5B6F43F001035367FEF7F6FA56
S31508003718C7F8840009E0FEF7F1FA0246D7F88430BC
S31508003728D31A022B01D90323BBE1824B5B6F03F043
S315080037380203002BEFD01AE07E4A7E4B5B6F23F01C
S3150800374801035367FEF7DAFAC7F8840009E0FEF7BB
S31508003758D5FA0246D7F88430D31A022B01D903239F
S315080037689FE1744B5B6F03F00203002BEFD17B6874
S315080037781B6803F00403002B00F093806D4A6D4B19
S315080037881B6C43F0805313646A4B1B6C03F080531D
S31508003798BB60BB68684A684B1B6843F48073136050
S315080037A8FEF7ACFAC7F8840009E0FEF7A7FA02465E
S315080037B8D7F88430D31A642B01D9032371E15E4BF9
S315080037C81B6803F48073002BEFD07B689B68012B7A
S315080037D806D1584A574B1B6F43F0010313672DE070
S315080037E87B689B68002B0CD1524A524B1B6F23F0FF
S315080037F8010313674F4A4F4B1B6F23F004031367E4
S315080038081CE07B689B68052B0CD14A4A494B1B6F01
S3150800381843F004031367474A464B1B6F43F00103FB
S3150800382813670BE0434A434B1B6F23F001031367E7
S31508003838404A404B1B6F23F0040313677B689B6859
S31508003848002B17D0FEF75AFAC7F884000BE0FEF7E4
S3150800385855FA0246D7F88430D31A41F28832934289
S3150800386801D903231DE1334B1B6F03F00203002B19
S31508003878EDD016E0FEF742FAC7F884000BE0FEF72B
S315080038883DFA0246D7F88430D31A41F28832934271
S3150800389801D9032305E1274B1B6F03F00203002B0D
S315080038A8EDD17B689B69002B00F0FA80214B9B6859
S315080038B803F00C03082B00F0F1807B689B69022B48
S315080038C840F0D0801B4A1B4B1B6823F0807313609B
S315080038D8FEF714FAC7F8840009E0FEF70FFA02465D
S315080038E8D7F88430D31A022B01D90323D9E0114B10
S315080038F81B6803F00073002BEFD10E4C7B68DA695E
S315080039087B681B6A1A437B68596A47F6C0733B6724
S315080039180023FB603B6F93FAA3F3FB60FB68FB6627
S315080039280023BB6100237B6100233B611F23BB6126
S3150800393814E000BF0038024000700040F86EBB690A
S3150800394820FA03F303F001037B617B69002B08D196
S315080039583B6901333B61BB69013BBB61BB69002B12
S31508003968ECDA3B6901FA03F31A437B689B6A5B083E
S31508003978591E4FF44033BB660023FB61BB6E93FAAE
S31508003988A3F3FB61FB697B660023BB6200237B62AA
S3150800399800233B621F23BB620FE0786EBB6A20FADE
S315080039A803F303F001037B627B6A002B08D13B6AA9
S315080039B801333B62BB6A013BBB62BB6A002BECDA8C
S315080039C83B6A01FA03F31A437B68D96A4FF07063B6
S315080039D83B660023FB623B6E93FAA3F3FB62FB6A22
S315080039E8C7F880300023BB6300237B6300233B634F
S315080039F81F23BB6310E0D7F88000BB6B20FA03F3DC
S31508003A0803F001037B637B6B002B08D13B6B013307
S31508003A183B63BB6B013BBB63BB6B002BEBDA3B6BB6
S31508003A2801FA03F3134343F0005363601F4A1F4B1D
S31508003A381B6843F080731360FEF760F9C7F88400C3
S31508003A4809E0FEF75BF90246D7F88430D31A022B49
S31508003A5801D9032325E0154B1B6803F00073002BD7
S31508003A68EFD01DE0114A114B1B6823F080731360D1
S31508003A78FEF744F9C7F8840009E0FEF73FF902465D
S31508003A88D7F88430D31A022B01D9032309E0074B48
S31508003A981B6803F00073002BEFD101E0012300E057
S31508003AA8002318468C37BD4690BD00BF0038024033
S31508003AB880B58AB000AF7860396000237B62864B90
S31508003AC81B6803F00F023B689A4210D28249824B60
S31508003AD81B6823F00F023B6813430B607E4B1B6879
S31508003AE803F00F023B689A4201D00123EFE07B6896
S31508003AF81B6803F00203002B08D07849774B9B68AC
S31508003B0823F0F0027B689B6813438B607B681B680D
S31508003B1803F00103002B6AD07B685B68012B07D189
S31508003B286E4B1B6803F40033002B15D10123CEE036
S31508003B387B685B68022B07D1684B1B6803F0007328
S31508003B48002B09D10123C2E0644B1B6803F002036A
S31508003B58002B01D10123BAE06049604B9B6823F02A
S31508003B6803027B685B6813438B60FEF7C7F87862C5
S31508003B787B685B68012B12D10AE0FEF7BFF802469C
S31508003B887B6AD31A41F28832934201D903239EE00D
S31508003B98524B9B6803F00C03042BEED127E07B6895
S31508003BA85B68022B1DD10AE0FEF7A8F802467B6A75
S31508003BB8D31A41F28832934201D9032387E0474B47
S31508003BC89B6803F00C03082BEED110E0FEF796F875
S31508003BD802467B6AD31A41F28832934201D90323F3
S31508003BE875E03E4B9B6803F00C03002BEED13A4B6D
S31508003BF81B6803F00F023B689A4210D93649364BC0
S31508003C081B6823F00F023B6813430B60324B1B6893
S31508003C1803F00F023B689A4201D0012357E07B68FC
S31508003C281B6803F00403002B08D02C492B4B9B6810
S31508003C3823F4E0527B68DB6813438B607B681B6858
S31508003C4803F00803002B09D02449244B9B6823F466
S31508003C5860427B681B69DB0013438B6000F044F8FD
S31508003C681E4B9B6803F0F002F0233B620023FB60BF
S31508003C783B6A93FAA3F3FB60FB68FB610023BB610D
S31508003C8800237B6100233B611F23BB610FE0F969B1
S31508003C98BB6921FA03F303F001037B617B69002BF7
S31508003CA808D13B6901333B61BB69013BBB61BB6911
S31508003CB8002BECDA3B6922FA03F3094AD35C20FAAB
S31508003CC803F3084A13600F20FDF7EEFF0023184692
S31508003CD82837BD4680BD00BF003C02400038024078
S31508003CE8E0A600089801002080B497B000AF00232A
S31508003CF8FB6400237B650023BB6400233B65644B98
S31508003D089B6803F00C03042B07D0082B08D0002B5C
S31508003D1840F0B3805F4B3B65B2E05F4B3B65AFE075
S31508003D285B4B5B6803F03F03FB64594B5B6803F422
S31508003D388003002B35D0584AFB6CB2FBF3F2544B80
S31508003D48596847F6C0730B4047F6C07139640021B5
S31508003D583962396C91FAA1F13962396A39630021F5
S31508003D68F9620021B962002179621F21F9620FE020
S31508003D78386BF96A20FA01F101F00101B962B96AEA
S31508003D88002908D1796A01317962F96A0139F96233
S31508003D98F96A0029ECDA796ACB4003FB02F37B65FA
S31508003DA834E03C4AFB6CB2FBF3F2394B596847F6E8
S31508003DB8C0730B4047F6C071B96300213961B96B06
S31508003DC891FAA1F13961396979640021F96100210B
S31508003DD8B961002179611F21F9610FE0786CF969E9
S31508003DE820FA01F101F00101B961B969002908D180
S31508003DF8796901317961F9690139F961F96900293E
S31508003E08ECDA7969CB4003FB02F37B65204B5B68E8
S31508003E1803F440324FF440337B6300233B607B6BEB
S31508003E2893FAA3F33B603B68FB630023FB6000231C
S31508003E38BB6000237B601F23FB600FE0F96BFB6800
S31508003E4821FA03F303F00103BB60BB68002B08D112
S31508003E587B6801337B60FB68013BFB60FB68002BD2
S31508003E68ECDA7B6822FA03F301335B00BB647A6DEC
S31508003E78BB6CB2FBF3F33B6502E0064B3B6500BF40
S31508003E883B6D18465C37BD465DF8047B704700BF36
S31508003E98003802400024F40040787D0190B5ADF55D
S31508003EA8797D00AF3B1D18600023C7F8D43300237B
S31508003EB8C7F8D0330023C7F8CC330023C7F8DC3358
S31508003EC80023C7F8D8333B1D1B681B6803F001039A
S31508003ED8002B15D07B4A7B4B9B6823F40003936021
S31508003EE87849784B9A683B1D1B685B6B13438B6054
S31508003EF83B1D1B685B6B002B02D10123C7F8DC331B
S31508003F083B1D1B681B6803F40023002B1CD06D4956
S31508003F186C4BD3F88C3023F440123B1D1B68DB6BC3
S31508003F281343C1F88C303B1D1B68DB6BB3F5801F48
S31508003F3802D10123C7F8DC333B1D1B68DB6B002B5A
S31508003F4802D10123C7F8D8333B1D1B681B6803F445
S31508003F588013002B1CD05B495A4BD3F88C3023F4BA
S31508003F6840023B1D1B681B6C1343C1F88C303B1D74
S31508003F781B681B6CB3F5800F02D10123C7F8DC3325
S31508003F883B1D1B681B6C002B02D10123C7F8D833CD
S31508003F983B1D1B681B6803F08073002B02D00123A6
S31508003FA8C7F8DC333B1D1B681B6803F02003002B8E
S31508003FB800F09E80434A434B1B6C43F080531364BE
S31508003FC8404B1B6C03F0805207F108031A6007F18F
S31508003FD808031B683C4A3C4B1B6843F48073136010
S31508003FE8FDF78CFEC7F8D4030AE0FDF787FE0246FC
S31508003FF8D7F8D433D31A642B02D9032301F0EDBFBB
S31508004008314B1B6803F48073002BEED02D4B1B6FC6
S3150800401803F44073C7F8D033D7F8D033002B3CD015
S315080040283B1D1B681B6B03F44072D7F8D0339A42C2
S3150800403833D0244B1B6F23F44073C7F8D033214A77
S31508004048204B1B6F43F4803313671E4A1D4B1B6FA7
S3150800405823F4803313671B4AD7F8D0331367194BF1
S315080040681B6F03F00103002B17D0FDF747FEC7F8AF
S31508004078D4030CE0FDF742FE0246D7F8D433D31A28
S3150800408841F28832934202D9032301F0A6BF0D4BA9
S315080040981B6F03F00203002BECD03B1D1B681B6B40
S315080040A803F44073B3F5407F12D10648054B9B6865
S315080040B823F4F8123B1D1B68196B044B0B4013437A
S315080040C883600BE00038024000700040FFFCFF0FD9
S315080040D8B64AB64B9B6823F4F8139360B349B34BB7
S315080040E81A6F3B1D1B681B6BC3F30B0313430B6744
S315080040F83B1D1B681B6803F01003002B11D0AB4A45
S31508004108AA4BD3F88C3023F08073C2F88C30A749B1
S31508004118A64BD3F88C203B1D1B689B6B1343C1F831
S315080041288C303B1D1B681B6803F48043002B0BD09F
S315080041389E499E4BD3F8903023F440323B1D1B68AA
S315080041485B6E1343C1F890303B1D1B681B6803F46C
S315080041580043002B0BD09549944BD3F8903023F4A1
S3150800416840223B1D1B689B6E1343C1F890303B1DCC
S315080041781B681B6803F48033002B0BD08B498B4BC9
S31508004188D3F8903023F440123B1D1B68DB6E1343AB
S31508004198C1F890303B1D1B681B6803F40033002BDD
S315080041A80BD08249814BD3F8903023F440023B1D4B
S315080041B81B681B6F1343C1F890303B1D1B681B68AF
S315080041C803F04003002B0BD07849784BD3F890308E
S315080041D823F003023B1D1B685B6C1343C1F8903040
S315080041E83B1D1B681B6803F08003002B0BD06F4927
S315080041F86E4BD3F8903023F00C023B1D1B689B6C62
S315080042081343C1F890303B1D1B681B6803F4807381
S31508004218002B0BD06549654BD3F8903023F0300254
S315080042283B1D1B68DB6C1343C1F890303B1D1B68AC
S315080042381B6803F40073002B0BD05C495B4BD3F85F
S31508004248903023F0C0023B1D1B681B6D1343C1F851
S3150800425890303B1D1B681B6803F48063002B0BD04A
S315080042685249524BD3F8903023F440723B1D1B68D1
S315080042785B6D1343C1F890303B1D1B681B6803F43C
S315080042880063002B0BD04949484BD3F8903023F4E8
S3150800429840623B1D1B689B6D1343C1F890303B1D5C
S315080042A81B681B6803F48053002B0BD03F493F4B10
S315080042B8D3F8903023F440523B1D1B68DB6D13433B
S315080042C8C1F890303B1D1B681B6803F40053002B8C
S315080042D80BD03649354BD3F8903023F440423B1D72
S315080042E81B681B6E1343C1F890303B1D1B681B687F
S315080042F803F48003002B0BD02C492C4BD3F89030B1
S3150800430823F080623B1D1B689B6F1343C1F89030EE
S315080043183B1D1B681B6803F40013002B14D02349A4
S31508004328224BD3F8903023F000623B1D1B68DB6FE5
S315080043381343C1F890303B1D1B68DB6FB3F1006F60
S3150800434802D10123C7F8D8333B1D1B681B6803F045
S315080043580803002B02D00123C7F8D8333B1D1B6876
S315080043681B6803F48023002B0BD010490F4BD3F896
S31508004378903023F040723B1D1B685B6F1343C1F8EE
S3150800438890303B1D1B681B6803F40003002B0FD0F5
S315080043980649064BD3F8903023F080523B1D1B681C
S315080043A8D3F880301343C1F8903001E00038024052
S315080043B8D7F8DC33012B06D03B1D1B681B68B3F105
S315080043C8007F40F08D87A34AA24B1B6823F08063C1
S315080043D81360FDF793FCC7F8D4030AE0FDF78EFCD3
S315080043E80246D7F8D433D31A642B02D9032301F02B
S315080043F8F4BD984B1B6803F00063002BEED13B1DF8
S315080044081B681B6803F00103002B00F0F5813B1DB0
S315080044181B685B6B002B40F0EF818E4BD3F884301A
S3150800442803F440324FF44033C7F8C43307F50B7327
S3150800443800211960D7F8C43393FAA3F107F50B736B
S31508004448196007F50B731B68C7F8C03307F50E73B1
S315080044580021196007F50D730021196007F50C731B
S315080044680021196007F50E731F2119601DE007F56D
S315080044780E73D7F8C0131B68D94007F50D7301F0FA
S315080044880101196007F50D731B68002B12D107F592
S315080044980C7307F50C7109680131196007F50E7375
S315080044A807F50E7109680139196007F50E731B6857
S315080044B8002BDCDA07F50C731B6822FA03F3C7F836
S315080044C8D033644BD3F8843003F070624FF07063CE
S315080044D8C7F8BC3307F50F7300211960D7F8BC3342
S315080044E893FAA3F107F50F73196007F50F731B689D
S315080044F8C7F8B83307F512730021196007F5117361
S315080045080021196007F510730021196007F5127361
S315080045181F2119601DE007F51273D7F8B8131B6831
S31508004528D94007F5117301F00101196007F51173F0
S315080045381B68002B12D107F5107307F51071096867
S315080045480131196007F5127307F5127109680139FF
S31508004558196007F512731B68002BDCDA07F5107368
S315080045681B6822FA03F3C7F8CC333A4C3B1D1B6881
S315080045785A6847F6C073C7F8B43307F513730021AA
S315080045881960D7F8B43393FAA3F107F513731960CA
S3150800459807F513731B68C7F8B03307F516730021B8
S315080045A8196007F515730021196007F514730021BA
S315080045B8196007F516731F2119601DE007F51673AC
S315080045C8D7F8B0131B68D94007F5157301F0010130
S315080045D8196007F515731B68002B12D107F51473B4
S315080045E807F5147109680131196007F5167307F597
S315080045F8167109680139196007F516731B68002BC7
S31508004608DCDA07F514731B689A404FF44033C7F889
S31508004618AC3307F5177300211960D7F8AC3393FA4A
S31508004628A3F107F51773196007F517731B68C7F819
S31508004638A83307F51A730021196007F519730021BD
S31508004648196007F518730021196007F51A731F21F1
S3150800465819601FE00038024007F51A73D7F8A8133F
S315080046681B68D94007F5197301F00101196007F5A8
S3150800467819731B68002B12D107F5187307F51871FB
S3150800468809680131196007F51A7307F51A71096877
S315080046980139196007F51A731B68002BDCDA07F568
S315080046A818731B68D7F8D01301FA03F31A434FF0A7
S315080046B87063C7F8A43307F51B7300211960D7F888
S315080046C8A43393FAA3F107F51B73196007F51B734F
S315080046D81B68C7F8A03307F51E730021196007F58C
S315080046E81D730021196007F51C730021196007F569
S315080046F81E731F2119601DE007F51E73D7F8A0134E
S315080047081B68D94007F51D7301F00101196007F503
S315080047181D731B68002B12D107F51C7307F51C714E
S3150800472809680131196007F51E7307F51E710968CE
S315080047380139196007F51E731B68002BDCDA07F5C3
S315080047481C731B68D7F8CC1301FA03F31A433B1DED
S315080047581B6899684FF0E043C7F89C3307F51F7341
S3150800476800201860D7F89C3393FAA3F007F51F734F
S31508004778186007F51F73186807F52373186007F597
S3150800478822730020186007F521730020186007F5C2
S3150800479820730020186007F522731F2018601EE092
S315080047A807F5237007F5227300681B68D84007F5D4
S315080047B8217300F00100186007F521731B68002BA8
S315080047C812D107F5207307F52070006801301860C4
S315080047D807F5227307F5227000680138186007F58F
S315080047E822731B68002BDBDA07F520731B6801FAAE
S315080047F803F31343C4F884303B1D1B681B6803F492
S315080048080023002B05D03B1D1B68DB6BB3F5801F07
S315080048180ED03B1D1B681B6803F48013002B00F0A1
S3150800482801823B1D1B681B6CB3F5800F40F0FA81AB
S31508004838B74BD3F8843003F440324FF44033C7F803
S31508004848943307F5E67300211960D7F8943393FA79
S31508004858A3F107F5E673196007F5E6731B68C7F849
S31508004868903307F5EC730021196007F5EA73002100
S31508004878196007F5E8730021196007F5EC731F211D
S3150800488819601DE007F5EC73D7F890131B68D94033
S3150800489807F5EA7301F00101196007F5EA731B6861
S315080048A8002B12D107F5E87307F5E8710968013195
S315080048B8196007F5EC7307F5EC7109680139196091
S315080048C807F5EC731B68002BDCDA07F5E8731B6839
S315080048D822FA03F3C7F8D0338D4BD3F8843003F0A4
S315080048E8E0424FF0E043C7F88C3307F5EE73002132
S315080048F81960D7F88C3393FAA3F107F5EE731960A4
S3150800490807F5EE731B68C7F8883307F5F4730021B3
S31508004918196007F5F2730021196007F5F07300218D
S31508004928196007F5F4731F2119601DE007F5F4737C
S31508004938D7F888131B68D94007F5F27301F0010107
S31508004948196007F5F2731B68002B12D107F5F07387
S3150800495807F5F07109680131196007F5F47307F569
S31508004968F47109680139196007F5F4731B68002B97
S31508004978DCDA07F5F0731B6822FA03F3C7F8CC33B9
S31508004988634C3B1D1B685A6847F6C073C7F88433DF
S3150800499807F5F67300211960D7F8843393FAA3F15B
S315080049A807F5F673196007F5F6731B68C7F88033B9
S315080049B807F5FC730021196007F5FA7300211960D9
S315080049C807F5F8730021196007F5FC731F211960AC
S315080049D81DE007F5FC73D7F880131B68D94007F55F
S315080049E8FA7301F00101196007F5FA731B68002BC1
S315080049F812D107F5F87307F5F871096801311960D6
S31508004A0807F5FC7307F5FC7109680139196007F59C
S31508004A18FC731B68002BDCDA07F5F8731B689A40E9
S31508004A284FF44033C7F87C3307F5FE730021196045
S31508004A38D7F87C3393FAA3F107F5FE73196007F5DF
S31508004A48FE731B68C7F8783307F5027300211960E7
S31508004A5807F501730021196007F50073002119602D
S31508004A6807F502731F2119601DE007F50273D7F8C9
S31508004A7878131B68D94007F5017301F0010119601D
S31508004A8807F501731B68002B12D107F5007307F5A4
S31508004A98007109680131196007F5027307F5027193
S31508004AA809680139196007F502731B68002BDCDAF7
S31508004AB807F500731B68D7F8D01301FA03F31A43EE
S31508004AC83B1D1B68D9684FF07063C7F8743307F540
S31508004AD8037300201860D7F8743393FAA3F007F520
S31508004AE80373186007F503731B68C7F8703307F56F
S31508004AF806730020186007F505730020186007F587
S31508004B0804730020186007F506731F2018601FE055
S31508004B180038024007F50673D7F870031B68D840B3
S31508004B2807F5057300F00100186007F505731B689B
S31508004B38002B12D107F5047307F5047000680130D5
S31508004B48186007F5067307F50670006801381860D7
S31508004B5807F506731B68002BDCDA07F504731B6870
S31508004B6801FA03F31A434FF0E043C7F86C3307F525
S31508004B78077300211960D7F86C3393FAA3F107F580
S31508004B880773196007F507731B68C7F8C83307F56D
S31508004B980A730021196007F509730021196007F5DA
S31508004BA808730021196007F50A731F2119601DE0AB
S31508004BB807F50A73D7F8C8131B68D94007F50973A8
S31508004BC801F00101196007F509731B68002B12D15A
S31508004BD807F5087307F5087109680131196007F5BB
S31508004BE80A7307F50A7109680139196007F50A731E
S31508004BF81B68002BDCDA07F508731B68D7F8CC1393
S31508004C0801FA03F31343C4F88430C149C04BD3F8F7
S31508004C188C3023F01F023B1D1B685B6A013B13435C
S31508004C28C1F88C303B1D1B681B6803F08073002B8A
S31508004C3800F0ED81B64BD3F8843003F070624FF07C
S31508004C487063C7F8643307F5B67300211960D7F897
S31508004C58643393FAA3F107F5B673196007F5B673C3
S31508004C681B68C7F8603307F5BC730021196007F598
S31508004C78BA730021196007F5B8730021196007F59A
S31508004C88BC731F2119601DE007F5BC73D7F86013BC
S31508004C981B68D94007F5BA7301F00101196007F5D1
S31508004CA8BA731B68002B12D107F5B87307F5B871E4
S31508004CB809680131196007F5BC7307F5BC710968FD
S31508004CC80139196007F5BC731B68002BDCDA07F590
S31508004CD8B8731B6822FA03F3C7F8D0338C4BD3F89A
S31508004CE8843003F0E0424FF0E043C7F85C3307F539
S31508004CF8BE7300211960D7F85C3393FAA3F107F558
S31508004D08BE73196007F5BE731B68C7F8583307F5ED
S31508004D18C4730021196007F5C2730021196007F5E5
S31508004D28C0730021196007F5C4731F2119601DE0B7
S31508004D3807F5C473D7F858131B68D94007F5C27323
S31508004D4801F00101196007F5C2731B68002B12D11F
S31508004D5807F5C07307F5C07109680131196007F5C9
S31508004D68C47307F5C47109680139196007F5C4736E
S31508004D781B68002BDCDA07F5C0731B6822FA03F3F5
S31508004D88C7F8CC33624C3B1D1B685A6847F6C07394
S31508004D98C7F8543307F5C67300211960D7F8543392
S31508004DA893FAA3F107F5C673196007F5C6731B6866
S31508004DB8C7F8503307F5CC730021196007F5CA738D
S31508004DC80021196007F5C8730021196007F5CC7327
S31508004DD81F2119601DE007F5CC73D7F850131B6817
S31508004DE8D94007F5CA7301F00101196007F5CA73B6
S31508004DF81B68002B12D107F5C87307F5C87109682F
S31508004E080131196007F5CC7307F5CC7109680139C2
S31508004E18196007F5CC731B68002BDCDA07F5C8732D
S31508004E281B689A403B1D1B6819694FF44033C7F83D
S31508004E384C3307F5CE7300201860D7F84C3393FA2D
S31508004E48A3F007F5CE73186007F5CE731B68C7F885
S31508004E58483307F5D4730020186007F5D273002085
S31508004E68186007F5D0730020186007F5D4731F205B
S31508004E7818601DE007F5D473D7F848031B68D840AF
S31508004E8807F5D27300F00100186007F5D2731B689E
S31508004E98002B12D107F5D07307F5D07000680130DA
S31508004EA8186007F5D47307F5D470006801381860D8
S31508004EB807F5D4731B68002BDCDA07F5D0731B6873
S31508004EC801FA03F31A434FF07063C7F8443307F53A
S31508004ED8D67300211960D7F8443393FAA3F107F576
S31508004EE8D673196007F5D6731B68C7F8403307F5F4
S31508004EF8DC730021196007F5DA730021196007F5D4
S31508004F08D8730021196007F5DC731F2119601FE0A3
S31508004F180038024007F5DC73D7F840131B68D940F8
S31508004F2807F5DA7301F00101196007F5DA731B68EA
S31508004F38002B12D107F5D87307F5D871096801311E
S31508004F48196007F5DC7307F5DC710968013919601A
S31508004F5807F5DC731B68002BDCDA07F5D8731B68C2
S31508004F68D7F8D01301FA03F31A434FF0E043C7F80A
S31508004F783C3307F5DE7300211960D7F83C3393FAFA
S31508004F88A3F107F5DE73196007F5DE731B68C7F822
S31508004F98983307F5E4730021196007F5E2730021D1
S31508004FA8196007F5E0730021196007F5E4731F21F6
S31508004FB819601DE007F5E473D7F898131B68D940FC
S31508004FC807F5E27301F00101196007F5E2731B683A
S31508004FD8002B12D107F5E07307F5E071096801316E
S31508004FE8196007F5E47307F5E4710968013919606A
S31508004FF807F5E4731B68002BDCDA07F5E0731B6812
S31508005008D7F8CC1301FA03F31343C4F884303B1DCD
S315080050181B681B6803F00073002B00F04581BE4C23
S315080050283B1D1B685A6847F6C073C7F8343307F53B
S31508005038967300211960D7F8343393FAA3F107F564
S315080050489673196007F596731B68C7F8303307F522
S315080050589C730021196007F59A730021196007F5F2
S3150800506898730021196007F59C731F2119601DE0C4
S3150800507807F59C73D7F830131B68D94007F59A7358
S3150800508801F00101196007F59A731B68002B12D104
S3150800509807F5987307F5987109680131196007F5D6
S315080050A89C7307F59C7109680139196007F59C73A3
S315080050B81B68002BDCDA07F598731B689A403B1DBA
S315080050C81B6819694FF44033C7F82C3307F59E73E4
S315080050D800201860D7F82C3393FAA3F007F59E73C7
S315080050E8186007F59E731B68C7F8283307F5A47375
S315080050F80020186007F5A2730020186007F5A0734A
S315080051080020186007F5A4731F2018601DE007F52E
S31508005118A473D7F828031B68D84007F5A27300F0CC
S315080051280100186007F5A2731B68002B12D107F552
S31508005138A07307F5A07000680130186007F5A47316
S3150800514807F5A47000680138186007F5A4731B688A
S31508005158002BDCDA07F5A0731B6801FA03F31A4378
S315080051683B1D1B68D9684FF07063C7F8243307F5E9
S31508005178A67300201860D7F8243393FAA3F007F526
S31508005188A673186007F5A6731B68C7F8203307F5D2
S31508005198AC730020186007F5AA730020186007F595
S315080051A8A8730020186007F5AC731F2018601DE067
S315080051B807F5AC73D7F820031B68D84007F5AA7318
S315080051C800F00100186007F5AA731B68002B12D1B6
S315080051D807F5A87307F5A87000680130186007F581
S315080051E8AC7307F5AC7000680138186007F5AC733E
S315080051F81B68002BDCDA07F5A8731B6801FA03F3AA
S315080052081A433B1D1B6899684FF0E043C7F81C33DF
S3150800521807F5AE7300201860D7F81C3393FAA3F085
S3150800522807F5AE73186007F5AE731B68C7F86833D9
S3150800523807F5B4730020186007F5B27300201860E4
S3150800524807F5B0730020186007F5B4731F201860B7
S315080052581DE007F5B473D7F868031B68D84007F547
S31508005268B27300F00100186007F5B2731B68002BCB
S3150800527812D107F5B07307F5B070006801301860E9
S3150800528807F5B47307F5B47000680138186007F5B0
S31508005298B4731B68002BDCDA07F5B0731B6801FAD0
S315080052A803F31343C4F884301B4A1B4B1B6843F0AB
S315080052B880631360FCF722FDC7F8D4030AE0FCF7FD
S315080052C81DFD0246D7F8D433D31A642B02D9032313
S315080052D800F083BE104B1B6803F00063002BEED06A
S315080052E8D7F8D833012B40F077860B4A0A4B1B6848
S315080052F823F080531360FCF701FDC7F8D4030DE0CB
S31508005308FCF7FCFC0246D7F8D433D31A642B05D924
S31508005318032300F062BE00BF00380240C74B1B6873
S3150800532803F00053002BEBD13B1D1B681B6803F4E5
S315080053380023002B04D03B1D1B68DB6B002B0DD00C
S315080053483B1D1B681B6803F48013002B00F00182C1
S315080053583B1D1B681B6C002B40F0FB81B74BD3F831
S31508005368883003F440324FF44033C7F8143307F152
S31508005378CC0300211960D7F8143393FAA3F107F17F
S31508005388CC03196007F1CC031B68C7F8103307F17B
S31508005398D8030021196007F1D4030021196007F121
S315080053A8D0030021196007F1D8031F2119601DE0F1
S315080053B807F1D803D7F810131B68D94007F1D403A7
S315080053C801F00101196007F1D4031B68002B12D1FB
S315080053D807F1D00307F1D00109680131196007F10F
S315080053E8D80307F1D80109680139196007F1D80304
S315080053F81B68002BDCDA07F1D0031B6822FA03F3D3
S31508005408C7F8D0338D4BD3F8883003F0E0424FF015
S31508005418E043C7F80C3307F1DC0300211960D7F815
S315080054280C3393FAA3F107F1DC03196007F1DC03DF
S315080054381B68C7F8083307F1E8030021196007F164
S31508005448E4030021196007F1E0030021196007F158
S31508005458E8031F2119601DE007F1E803D7F80813C8
S315080054681B68D94007F1E40301F00101196007F147
S31508005478E4031B68002B12D107F1E00307F1E001EA
S3150800548809680131196007F1E80307F1E8010968B5
S315080054980139196007F1E8031B68002BDCDA07F104
S315080054A8E0031B6822FA03F3C7F8CC33634C3B1DA9
S315080054B81B685A6947F6C073C7F8043307F1EC0343
S315080054C800211960D7F8043393FAA3F107F1EC031E
S315080054D8196007F1EC031B68C7F8003307F1F803EE
S315080054E80021196007F1F4030021196007F1F00398
S315080054F80021196007F1F8031F2119601DE007F15B
