S010000048313038453133332E7372656357
S315080C000000D0072065180E08D51B0F08E51B0F082E
S315080C0010ED1B0F08F51B0F08FD1B0F080000000051
S315080C0020000000000000000000000000051C0F087E
S315080C0030151C0F080000000091020C08C5150E08C7
S315080C0040C1180E08C1180E08C1180E08C1180E08DA
S315080C0050C1180E08C1180E08C1180E08C1180E08CA
S315080C0060C1180E08C1180E08C1180E08C1180E08BA
S315080C0070C1180E08C1180E08C1180E08C1180E08AA
S315080C0080C1180E08C1180E08C1180E08CD1D0C088B
S315080C0090551A0C08C1180E08C1180E08C1180E08F6
S315080C00A0C1180E08C1180E08C1180E08C1180E087A
S315080C00B0C1180E08C1180E08C1180E08C1180E086A
S315080C00C0C1180E08C1180E08C1180E08C1180E085A
S315080C00D0C1180E08C1180E08C1180E08C1180E084A
S315080C00E0C1180E08C1180E08C1180E08C1180E083A
S315080C00F0C1180E08C1180E08C1180E08C1180E082A
S315080C0100C1180E08C1180E08C1180E08C1180E0819
S315080C0110C1180E08C1180E08C1180E08C1180E0809
S315080C01209D1C0F08C1180E08C1180E08C1180E0818
S315080C0130C1180E08C1180E08C1180E0829280C0873
S315080C0140B1240C08C1180E08C1180E08C1180E08DF
S315080C0150C1180E08C1180E08C1180E08C1180E08C9
S315080C0160C1180E08C1180E08C1180E08C1180E08B9
S315080C0170C1180E08C1180E08C1180E080000000098
S315080C0180C1180E08C1180E08C1180E08C1180E0899
S315080C0190C1180E08C1180E08C1180E08C1180E0889
S315080C01A0251C0F08C1180E089D1C0F08C1180E082F
S315080C01B0C1180E08C1180E08C1180E08C1180E0869
S30D080C01C0C1180E08C1180E083F
S315080C01D010B5054C237833B9044B13B10448AFF367
S315080C01E000800123237010BDD819012000000000DF
S315080C01F060910F08084B10B51BB108490848AFF3B6
S315080C020000800848036803B910BD074B002BFBD0C8
S315080C0210BDE81040184700BF00000000DC1901209B
S315080C022060910F08D819012000000000000000009A
S315080C023024484FF080510160704700BFAFF300802F
S315080C024020484FF080510160704700BFAFF3008023
S315080C0250EFF3108072B67047AFF30080AFF30080EF
S315080C026080F31088704700BFAFF30080AFF30080AF
S315080C02701548FF210170002080F3098813480121D5
S315080C0280017010484FF08051016062B6FEE700BF5E
S315080C029072B6EFF3098030B120E9F00F20ED108A21
S315080C02A00B49096808600A480A490A680260106816
S315080C02B0B0EC108AB0E8F00F80F309884EF0040E03
S315080C02C062B6704704ED00E022ED00E0E02703205B
S315080C02D0E4270320DC2703200000000000000000B0
S315080C02E04FF006014FF005020A440B2A00D070475E
S315080C02F0062105220A44EFF30084B4F1005F0BD003
S315080C030070477FF000417FF000425218EFF30084EB
S315080C0310B4F1104F0AD07047062105220A440B2A5D
S315080C0320EFF30084B4F1C04FEBD070474FF00601E1
S315080C03304FF00502A1EB0201012900D070474FF0DE
S315080C034003014FF0020202FB01F1062900D07047A7
S315080C03504FF004014FF00202B1FBF2F1022900D072
S315080C036070474FF001014FF0110201EA0203012B0D
S315080C037000D070474FF010014FF0010241EA02031A
S315080C0380112B00D070474FF011014FF0010281EA92
S315080C03900203102B00D070474FF00104014A147069
S315080C03A070470000CC26032080B588B000AF07F153
S315080C03B00C0300221A605A609A60DA601A61194AAC
S315080C03C0184B1B6B43F002031363164B1B6B03F0A2
S315080C03D00203BB60BB68134A124B1B6B43F0040346
S315080C03E01363104B1B6B03F004037B607B680023C1
S315080C03F03B614FF69343FB600223BB6101237B6190
S315080C040007F10C03194608482DF0F0FAFC23FB609B
S315080C041007F10C03194605482DF0E8FA00BF2037FA
S315080C0420BD4680BD00380240000402400008024068
S315080C043080B483B000AF0023FB800023BB80484BFD
S315080C04401B69FB80FB8803F44073FB80FB881B0A43
S315080C0450FB80444B1B78BB80FB88DAB2414B1A7085
S315080C0460BA88FB885340BB80BB88002B72D0BB88EC
S315080C047003F00103002B36D1FB8803F00103002B94
S315080C048018D1FB8803F00203002B09D0364B93F9DD
S315080C04900030DBB2013BDBB25AB2334B1A705AE06E
S315080C04A0314B93F90030DBB20133DBB25AB22E4B27
S315080C04B01A7050E0FB8803F00203002B09D02A4B74
S315080C04C093F90030DBB20133DBB25AB2264B1A7001
S315080C04D041E0254B93F90030DBB2013BDBB25AB253
S315080C04E0214B1A7037E0FB8803F00203002B18D156
S315080C04F0FB8803F00103002B09D01B4B93F9003042
S315080C0500DBB20133DBB25AB2174B1A7023E0164B27
S315080C051093F90030DBB2013BDBB25AB2124B1A70BC
S315080C052019E0FB8803F00103002B09D00E4B93F955
S315080C05300030DBB2013BDBB25AB20B4B1A700AE045
S315080C0540094B93F90030DBB20133DBB25AB2064BD6
S315080C05501A7000E000BF0C37BD465DF8047B704787
S315080C0560000002401E1A01201F1A012080B483B015
S315080C057000AF0023FB800023BB80474B1B69FB8025
S315080C0580FB8803F00303FB80444B1B78BB80FB887A
S315080C0590DAB2424B1A70BA88FB885340BB80BB88C8
S315080C05A0002B72D0BB8803F00103002B36D1FB88D5
S315080C05B003F00103002B18D1FB8803F00203002B70
S315080C05C009D0374B93F90030DBB2013BDBB25AB298
S315080C05D0334B1A705AE0324B93F90030DBB20133C5
S315080C05E0DBB25AB22E4B1A7050E0FB8803F00203AA
S315080C05F0002B09D02A4B93F90030DBB20133DBB25E
S315080C06005AB2274B1A7041E0254B93F90030DBB2EE
S315080C0610013BDBB25AB2224B1A7037E0FB8803F067
S315080C06200203002B18D1FB8803F00103002B09D019
S315080C06301B4B93F90030DBB20133DBB25AB2184BC1
S315080C06401A7023E0164B93F90030DBB2013BDBB290
S315080C06505AB2134B1A7019E0FB8803F00103002BEE
S315080C066009D00F4B93F90030DBB2013BDBB25AB21F
S315080C06700B4B1A700AE00A4B93F90030DBB20133C4
S315080C0680DBB25AB2064B1A7000E000BF0C37BD46F7
S315080C06905DF8047B704700BF00000240201A012059
S315080C06A0211A012080B483B000AF0023FB800023FD
S315080C06B0BB80294B1B69BB80BB8803F00303BB803B
S315080C06C0FA88BB881343FB80234B1B69BB80BB880A
S315080C06D003F01003BB80BB889B08BB80FA88BB88D9
S315080C06E01343FB801C4B1B69BB80BB8803F0800340
S315080C06F0BB80BB881B09BB80FA88BB881343FB806D
S315080C0700154B1B69BB80BB8823F47F7323F003034B
S315080C0710BB80BB889B09BB80FA88BB881343FB80CC
S315080C07200E4B1B69BB80BB8803F0FC03BB80BB88E4
S315080C07301B02BB80FA88BB881343FB80FB88DB4310
S315080C0740FB80FB88C3F30C03FB80FB8818460C372D
S315080C0750BD465DF8047B7047000402400008024061
S315080C076080B500AFFFF764FEFFF700FFFFF79AFFAF
S315080C077003461A46504B1B8813409AB24F4B1A80A5
S315080C07804E4B1B88002B06D14D4B00221A804D4B25
S315080C079000221A708EE04C4B93F90030002B00F0B7
S315080C07A08880464B1A88464B1B889A4216D0474B6C
S315080C07B06FF009021A60464B00221A70454B01224B
S315080C07C01A703E4B1A883E4B1A803C4B1B8803F01A
S315080C07D00103002B02D0404B404A1A60404B1B7851
S315080C07E0012B15D13F4B1B78012B11D0354B1B78A0
S315080C07F0002B0DD0314B1B88002B03D0314B01221B
S315080C08001A7002E02F4B00221A70354B00221A7010
S315080C08102C4B1B78012B06D1284B1B88002B02D19D
S315080C0820284B00221A70294B1B68002B1DDB294B01
S315080C083093F90030002B06D0264B00221A70234B56
S315080C0840294A1A6002E0214B284A1A60204B93F970
S315080C08500030002B09D1194B1A88254B1A801C4BD2
S315080C086001221A70184B00221A701B4B1B68002B9E
S315080C087020DB124B1B8803F001030F4A1288134026
S315080C0880002B03D01B4B00221A7002E0194B0122D5
S315080C08901A70184B93F90030002B06D1164B01220F
S315080C08A01A70144B01221A7004E0134B00221A70AA
S315080C08B000E000BF80BD00BF000000200C1A01201C
S315080C08C00E1A012083DF00201A1A0120101A0120A3
S315080C08D0181A012002000020141A012078ECFFFFD8
S315080C08E00300002091EA012018FCFFFFD4FEFFFF4D
S315080C08F01C1A0120191A0120231A012080B582B06E
S315080C090000AF0023FB80FFF7A3FC0246A44B1A603A
S315080C0910A44B1B88FB80A44B01221A70A14B002206
S315080C09201A809F4B1B681846FFF79AFCFB8803F046
S315080C09300103002B14BF01230023DBB25AB29B4BD5
S315080C09401A71FB8803F00203002B14BF0123002342
S315080C0950DBB25AB2954B5A71FB8803F00403002B91
S315080C096014BF01230023DBB25AB2904B9A71FB8851
S315080C097003F00803002B14BF01230023DBB25AB281
S315080C09808A4BDA71FB8803F01003002B14BF012382
S315080C09900023DBB25AB2854B1A72FB8803F020038C
S315080C09A0002B14BF01230023DBB25AB27F4B5A72B9
S315080C09B0FB8803F04003002B14BF01230023DBB292
S315080C09C05AB27A4B9A72FB8803F08003002B14BF39
S315080C09D001230023DBB25AB2744BDA72FB8803F498
S315080C09E08073002B14BF01230023DBB25AB26F4B62
S315080C09F01A74FB8803F40073002B14BF012300231D
S315080C0A00DBB25AB2694B5A74FB8803F48063002B29
S315080C0A1014BF01230023DBB25AB2644B9A74FB88C9
S315080C0A2003F40063002B14BF01230023DBB25AB274
S315080C0A305E4BDA745D4B00221A75FB8803F48053FF
S315080C0A40002B14BF01230023DBB25AB2574B5A753D
S315080C0A50564B00229A75FFF7FBFB0246504B1A6061
S315080C0A60534B00221A70534B93F90030002B0AD0C3
S315080C0A704F4B01221A704F4B93F900204B4B1A75AA
S315080C0A804C4B00221A704C4B93F90030002B0AD0B1
S315080C0A90474B01221A70484B93F90020434B9A7521
S315080C0AA0454B00221A70FFF7FDFD0346002B02D0BA
S315080C0AB03F4B01221A703E4B93F900203B4B1A70A0
S315080C0AC0374B1B681846FFF7CBFB384B93F90420BA
S315080C0AD0364B93F9053013435AB2344B93F9063017
S315080C0AE013435AB2314B93F9073013435AB22F4B6F
S315080C0AF093F9083013435AB22C4B93F90930134324
S315080C0B005AB22A4B93F90A3013435AB2274B5A70E6
S315080C0B10264B93F90120254B93F90B10234B93F98C
S315080C0B2010300B4359B2214B93F911300B4359B280
S315080C0B301E4B93F912300B4359B21C4B93F91330D5
S315080C0B400B4359B2194B93F915300B435BB213434C
S315080C0B505AB2164B5A70154B93F90120134B93F94D
S315080C0B601430002B14BF01230023D9B20F4B93F971
S315080C0B701630002B14BF01230023DBB20B43DBB268
S315080C0B805BB213435AB2094B5A70FFF78BFD0346F7
S315080C0B901A46064B5A8000BF0837BD4680BD00BFB3
S315080C0BA0D42603201C1A01201A1A0120F419012034
S315080C0BB0221A01201F1A0120211A012080B400AF25
S315080C0BC01D4B00221A711C4B00225A711A4B00221B
S315080C0BD09A71194B0022DA71174B00221A72164BAE
S315080C0BE000225A72144B00229A72134B0022DA72A4
S315080C0BF0114B00221A74104B00225A740E4B002209
S315080C0C009A740D4B0022DA740B4B00221A750A4B98
S315080C0C1000225A75084B00229A75074B00225A7007
S315080C0C20054B00221A70044B00225A8000BFBD46A1
S315080C0C305DF8047B704700BFF419012080B584B0B9
S315080C0C4000AF1D4A1C4B1B6B43F0010313631A4B75
S315080C0C501B6B03F00103FB60FB68174A164B1B6BF7
S315080C0C6043F002031363144B1B6B03F00203BB60C4
S315080C0C70BB68114A104B1B6B43F0040313630E4BF2
S315080C0C801B6B03F004037B607B68FFF78DFB0B483B
S315080C0C9038F022F80A4838F01FF8FFF7C9FBFFF7B7
S315080C0CA065FC084B00221A70074B00221A7000BF0D
S315080C0CB01037BD4680BD00BF00380240101A01200F
S315080C0CC0141A01201F1A0120211A012080B584B09C
S315080C0CD000AF904A8F4B1B6C43F0010313648D4B8A
S315080C0CE01B6C03F00103FB60FB688B4B4FF08042D7
S315080C0CF01A60894B2B225A60874B42F21072DA60C3
S315080C0D00854B00221A61844B00229A60824830F087
S315080C0D1053FB0346002B01D000F010F97F4B6022E1
S315080C0D201A607E4B00221A617C4B00229A607B4B20
S315080C0D300822DA60794B00225A60082277497648ED
S315080C0D4030F0A4FB0346002B01D000F0F7F808217D
S315080C0D50714830F067FB0346002B01D000F0EEF823
S315080C0D606C4A6C4B1B6B43F001031363694B1B6B8F
S315080C0D7003F00103BB60BB68694B02225A60684BDF
S315080C0D8001229A60664B0322DA60654B01221A61CE
S315080C0D90634B04221A60624962482CF027FE5D4AAE
S315080C0DA05C4B1B6C43F0020313645A4B1B6C03F02D
S315080C0DB002037B607B685C4B5C4A1A605A4B2B229D
S315080C0DC05A60594B42F21072DA60574B00221A617C
S315080C0DD0554B00229A60544830F0EEFA0346002B25
S315080C0DE001D000F0ABF84D4B60221A604B4B002239
S315080C0DF01A614A4B00229A60484B0822DA60474B24
S315080C0E0000225A6000224549474830F03FFB03460A
S315080C0E10002B01D000F092F80021434830F002FB79
S315080C0E200346002B01D000F089F83D4B02225A608C
S315080C0E303B4B01229A603A4B0322DA60384B02226A
S315080C0E401A61374B40221A60354936482CF0CEFDCC
S315080C0E50304A304B1B6C43F0080313642D4B1B6C48
S315080C0E6003F008033B603B68314B324A1A60304B3F
S315080C0E7000225A602E4B41F28832DA602C4B002243
S315080C0E801A612B4B00229A60294830F095FA0346D2
S315080C0E90002B01D000F052F8204B60221A601F4B31
S315080C0EA004221A611D4B02229A601C4B4FF4FA72EB
S315080C0EB05A600C2219491E4830F0E8FA0346002BF2
S315080C0EC001D000F03BF80C21194830F0ABFA034678
S315080C0ED0002B01D000F032F8114B02225A60104B4D
S315080C0EE002229A600E4B0322DA600D4B02221A611B
S315080C0EF00B4B08221A600A490A482CF077FD0E4853
S315080C0F0037F0EAFE0C4B6FF0C7021A6000BF1037B9
S315080C0F10BD4680BD00380240241A0120D81A01208B
S315080C0F20F41A012000000240601A01200004004057
S315080C0F309C1A0120000C0040081B012080B400AF4D
S315080C0F40FEE700BF80B485B000AF78600023FB6075
S315080C0F5000237B8100233B817B68374A934202D965
S315080C0F60354B7B6004E07B68312B01D832237B60E0
S315080C0F707B68324A1360314B1A68314B1B68D31A9B
S315080C0F80002BB8BF5B42FB60FB68002B17D0FB68D5
S315080C0F903F2B0DDC294B1A68294B1B68D31A002BDF
S315080C0FA002DD0123FB600AE04FF0FF33FB6006E02D
S315080C0FB0224B1A68224B1B68D31A9B11FB60204BD9
S315080C0FC01A68FB6813441E4A13601D4B1B6842F2D1
S315080C0FD01072934210DD42F210733B81184B1B685A
S315080C0FE041F2883202FB03F3164A82FB03125213B0
S315080C0FF0DB17D31A7B8105E04FF4FA737B81104B10
S315080C10001B683B81104B1B78012B07D14FF0804294
S315080C10103B89D3630D4A7B89136406E04FF0804302
S315080C10200022DA63094B00221A6400BF1437BD4646
S315080C10305DF8047B704700BFA086010024000020E1
S315080C10400400002089B5F81410AF0020000C0040ED
S315080C105080B485B000AF0346FB800023FB81FB8878
S315080C106042F21072934202D942F21073FB80B7F91E
S315080C107006202E4B1A802D4BB3F900301A462C4BF2
S315080C1080B3F90030D31A002B0BDD284BB3F900301B
S315080C10909AB2274BB3F900309BB2D31A9BB21BB248
S315080C10A00AE0234BB3F900309AB2204BB3F900305F
S315080C10B09BB2D31A9BB21BB2FB81B7F90E30002B2D
S315080C10C01ED0B7F90E301F2B10DC184BB3F90030B5
S315080C10D01A46174BB3F90030D31A002B02DD01233D
S315080C10E0FB810DE04FF6FF73FB8109E00F4BB3F95B
S315080C10F000301A460E4BB3F90030D31A5B11FB813C
S315080C11000B4BB3F900309AB2FB8913449BB21AB253
S315080C1110074B1A80074B064AB2F900205A6300BFE0
S315080C11201437BD465DF8047B704700BF0C1B0120C5
S315080C11300E1B01200004004080B582B000AF0023CE
S315080C11407B600023FB70204B1B68002B38DB1E4B87
S315080C11501B680A3B1C4A13601C4B1B78002B09D1D5
S315080C11601B4BB3F900301A4613469B0013445B001D
S315080C11707B6018E0174BB3F900301946FB1C1A466E
S315080C1180154837F0AFFB03467B60144BB3F90030B8
S315080C11901A467B6802FB03F37B607B68104AA2FB4A
S315080C11A00323DB087B607868FFF7CCFE7B680C4A68
S315080C11B0A2FB0323DB089BB21846FFF749FF00E0A6
S315080C11C000BF0837BD4680BD081B01203C0701201F
S315080C11D038070120781B0120A09F0F083A07012029
S315080C11E0CDCCCCCC80B485B000AF0346FB800023B5
S315080C11F0FB60194B1B78002B09D1184BB3F900303F
S315080C12001A4613469B0013445B00FB600EE0B7F9C5
S315080C12100630134A126802FB03F3124AB2F900208D
S315080C122093FBF2F3FB600F4AFB881380FB680E4AAC
S315080C1230934202D90C4BFB6004E0FB68312B01D8B6
S315080C12403223FB60FB68064A136000BF1437BD46A1
S315080C12505DF8047B704700BF3C0701203807012066
S315080C1260040000203A070120A086010080B584B04E
S315080C127000AF0346FB800023FB600023FB721E4B6A
S315080C12801B78012B27D11D4BB3F90030194607F1F2
S315080C12900B031A461A4837F025FB0346FB60B7F9C9
S315080C12A00630FA6802FB03F3FB60FB68154AA2FBDF
S315080C12B00323DB08FB60144AFB881380FB68134A7C
S315080C12C0934202D9114BFB600EE0FB68312B0BD80D
S315080C12D03223FB6008E00E4BB3F900301A4613466E
S315080C12E09B0013445B00FB60FB680A4A136000BF53
S315080C12F01037BD4680BD00BF3C070120781B012076
S315080C1300A09F0F08CDCCCCCC3A070120A0860100B3
S315080C1310380701200400002080B400AF4FF080434A
S315080C13200022DA63054B00221A64054B6FF0630240
S315080C13301A6000BFBD465DF8047B7047000C004080
S315080C1340081B012080B400AFFEE700BF80B588B04B
S315080C135000AF07F10C0300221A605A609A60DA6033
S315080C13601A61404A3F4B5B6C43F4806353643D4BB4
S315080C13705B6C03F48063BB60BB683A4A394B1B6BE6
S315080C138043F004031363374B1B6B03F004037B60B6
S315080C13907B68354B354A1A60334B4FF480325A60AA
S315080C13A0314B00229A60304B00221A612E4B0022D8
S315080C13B09A612D4B00221A622B4B00225A622A4B39
S315080C13C00022DA62284B00229A62274B0022DA6046
S315080C13D0254B0122DA61244B00221A63224B002288
S315080C13E05A6121482AF0EAFA0346002B01D0FFF786
S315080C13F0A9FF0323FB6003233B6100237B6107F1F1
S315080C14000C0319461A482CF0F1FA1A4B0A221A60E0
S315080C1410184B01225A60174B00229A60154B002272
S315080C1420DA60154B0B221A60134B01225A60124BC9
S315080C143000229A60104B0022DA600E490A482AF0FC
S315080C144061FC0346002B01D0FFF77CFF06482AF007
S315080C145007FB0346002B01D0FFF774FF00BF2037AC
S315080C1460BD4680BD00380240101B012000220140F9
S315080C147000080240581B0120681B012098B500AFD4
S315080C148000211C482AF09AFB1B4B1B881C46194842
S315080C14902AF02AFC03461AB2184B23F81420164BCA
S315080C14A01B8801339AB2144B1A80134B1B88022BD8
S315080C14B002D1114B00221A800F4B1B88002B02D02D
S315080C14C0012B08D00FE00E490A482AF01BFC0948E4
S315080C14D02AF0C6FA0BE00B4906482AF013FC054815
S315080C14E02AF0BEFA03E0044B00221A8000BF00BFA4
S315080C14F098BD00BF101B01207C1B0120781B012006
S315080C1500581B0120681B012080B588B000AF786095
S315080C15100023FB7707F1080300221A605A609A60C9
S315080C1520DA601A61304B1B6807F11F020021184656
S315080C153020F0C4FD2D4B00221A6007F1080319464A
S315080C1540022000F029FA0346032B18D03B7B03F044
S315080C15507F03DBB22A2B0CD107F1080300211846AE
S315080C156002F0EAFC0246224B1B681344204A13601D
S315080C1570D8E71F4B1B6801331D4A1360D2E707F1E6
S315080C158008031946042000F007FA0346032BC9D0B2
S315080C1590BB7B23F00103DBB2102B0BD0BB7B23F0F8
S315080C15A00103DBB2002B05D0BB7B23F00103DBB2B6
S315080C15B00E2B12D13B7B23F07F03DBB2002B0CD115
S315080C15C007F108030021184602F0CCFC0246084B2A
S315080C15D01B681344064A136004E0054B1B68013369
S315080C15E0034A13609EE700BF8C1B0120841B012055
S315080C15F0801B012080B500AF0123034A0021034854
S315080C160020F060F900BF80BD2810002009150C08D1
S315080C161080B588B000AF78600023FB7707F1080324
S315080C162000221A605A609A60DA601A612B4B1B68A2
S315080C163007F11F020021184620F040FD07F10803A8
S315080C16401946022000F0D6FE0346032B18D03B7B26
S315080C165003F07F03DBB22A2B0CD107F10803012117
S315080C1660184602F069FC02461D4B1B6813441C4ABB
S315080C16701360DBE71A4B1B680133194A1360D5E76D
S315080C168007F108031946042000F0B4FE0346032BA1
S315080C1690CCD0BB7B23F00103DBB20E2B05D0BB7B76
S315080C16A023F00103DBB2002B12D13B7B23F07F0323
S315080C16B0DBB2002B0CD007F108030121184602F007
S315080C16C051FC0246064B1B681344054A136004E09A
S315080C16D0034B1B680133024A1360A7E7101C012051
S315080C16E0881B012080B500AF0223034A002103485A
S315080C16F020F0E8F800BF80BD2820002011160C0841
S315080C170080B485B000AFF860B9601346FB71FB79FD
S315080C1710002B06D0FB685A69BB681A43FB685A61EA
S315080C172006E0FB685A69BB68DB431A40FB685A61DA
S315080C173000BF1437BD465DF8047B704780B483B090
S315080C174000AF78607B681B689B6803F08063002B8E
S315080C17500DD17B681B689B6803F00063002B06D1D0
S315080C17607B681B689B6803F08053002B01D0012310
S315080C177000E00023DBB218460C37BD465DF8047B47
S315080C1780704700BFB0B592B000AF7860396007F10A
S315080C1790200324220021184637F01EFC07F10C03FF
S315080C17A000221A605A609A60DA601A61002387F878
S315080C17B047303B681B88002B01D10323E5E0002248
S315080C17C002217448FFF79CFF3B685B6807F120040D
S315080C17D01D460FCD0FC40FCD0FC42B6823603B6875
S315080C17E01B88013B9AB23B681A803B685B6803F11D
S315080C17F024023B685A603B685A68396841F28C6324
S315080C18000B449A4204D13B6803F10C023B685A60BC
S315080C1810012202215F48FFF773FF7B6A9B0EDBB23E
S315080C182003F00703DBB23B733B7B022B3BD17B6A92
S315080C1830DBB203F00303DAB2FB7C62F30103FB743D
S315080C18407B6A9B089BB2C3F30D039AB23B6962F39E
S315080C185097233B617B6A1B0CDBB203F00103DAB2FC
S315080C18607B7C62F341037B747B6A5B0CDBB203F013
S315080C18700103DAB27B7C62F300037B747B6A9B0CF4
S315080C1880DBB203F00103DAB23B7C62F3C7133B7499
S315080C18907B6ADB0CDBB203F07F03DAB23B7C62F3C8
S315080C18A006033B7444E07B6ADBB203F00303DAB24B
S315080C18B0FB7C62F30103FB747B6A1B0CDBB203F043
S315080C18C00103DAB27B7C62F341037B747B6A5B0CA3
S315080C18D0DBB203F00103DAB27B7C62F300037B74A0
S315080C18E07B6A5B0ADBB203F07F03DAB23B6962F30D
S315080C18F090233B617B6ADB0CDBB203F07F03DAB225
S315080C19003B7C62F306033B747B6A9B0CDBB203F0ED
S315080C19100103DAB23B7C62F3C7133B747B6A9B0800
S315080C1920DBB203F07F03DAB2BB7C62F34703BB740A
S315080C19303B6BDBB23B753B7D082B01D908233B750A
S315080C1940002387F8473012E097F8473097F8472076
S315080C195007F148010A4412F8142C07F148010B4404
S315080C196003F8332C97F84730013387F847303B7D1B
S315080C197097F847209A42E7D37B681D4607F10C0473
S315080C19800FCC0FC523682B60002318464837BD4675
S315080C1990B0BD00BF0064004080B584B000AF0346FC
S315080C19A03960FB710423FB73FB79022B02D0042BE1
S315080C19B007D00DE00A493868FFF7E4FE0346FB73C7
S315080C19C009E008493868FFF7DDFE0346FB7302E0B9
S315080C19D00223FB7300BFFB7B18461037BD4680BD40
S315080C19E0803A00200C510020B0B483B000AF786068
S315080C19F039603B681B88A02B01D1012324E03B6886
S315080C1A009A687B6814461D460FCD0FC40FCD0FC4BC
S315080C1A102B6823603B681B8801339AB23B681A8093
S315080C1A203B689B6803F124023B689A603B689A689A
S315080C1A30396841F28C630B449A4204D13B6803F132
S315080C1A400C023B689A60002318460C37BD46B0BC9E
S315080C1A50704700BF80B582B000AF00237B600023BF
S315080C1A60FB7020F09BF9002200211B482AF0D8FEB7
S315080C1A701A4B5B689B0E03F007037B607B68022B93
S315080C1A8002D0042B0FD020E015491448FFF7ACFF01
S315080C1A900346FB70FB78002B14D1124B1B681846B7
S315080C1AA020F0DAFB0EE010490C48FFF79DFF0346C1
S315080C1AB0FB70FB78002B07D10A4B1B68184620F0E5
S315080C1AC0CBFB01E000BF00E000BF20F07FF900BFB0
S315080C1AD00837BD4680BD00BF901B0120EC1B0120BA
S315080C1AE0803A00208C1B01200C510020B0B582B026
S315080C1AF000AF78603960002201211E48FFF700FE0E
S315080C1B003B681B88782B06D1012201211948FFF75F
S315080C1B10F7FD01232AE03B689A687B6814461D4644
S315080C1B200FCD0FC495E8070084E807003B681B88AF
S315080C1B3001339AB23B681A803B689B6803F11C0216
S315080C1B403B689A603B689A683B6803F62C539A4242
S315080C1B5004D13B6803F10C023B689A60012201210F
S315080C1B600448FFF7CDFD00F031F900231846083775
S315080C1B70BD46B0BD0064004080B485B000AF786047
S315080C1B800023FB607B685B79C3F30003DBB25A0462
S315080C1B907B685B79C3F34003DBB21B041A437B688F
S315080C1BA05B68C3F38D239BB29B0013437A68D27987
S315080C1BB0C2F30102D2B21A437B681B79C3F3C01372
S315080C1BC0DBB29B041A437B681B79C3F30603DBB2AF
S315080C1BD0DB041343FB607B681B789B06FA6813438C
S315080C1BE0FB60FB6818461437BD465DF8047B7047E6
S315080C1BF080B485B000AF78600023FB607B681B79E6
S315080C1C00C3F30603DBB2DA047B681B79C3F3C01390
S315080C1C10DBB29B041A437B685B79C3F30003DBB224
S315080C1C205B041A437B685B79C3F34003DBB21B0482
S315080C1C301A437B685B68C3F38623DBB25B021A43E1
S315080C1C407B689B79C3F34603DBB29B0013437A6824
S315080C1C50D279C2F30102D2B21343FB607B681B78BC
S315080C1C609B06FA681343FB60FB6818461437BD4697
S315080C1C705DF8047B704700BF80B58EB000AF786006
S315080C1C80042387F82B3000237B63002387F8333033
S315080C1C9007F10C0300221A605A609A60DA601A611E
S315080C1CA05A619A610023FB627B681B78022B06D16A
S315080C1CB0264BFB627868FFF75FFF78630CE07B685E
S315080C1CC01B78042B06D1224BFB627868FFF790FF32
S315080C1CD0786301E0022334E07B681B7A082B01D970
S315080C1CE003232EE07B6B3B6104237B610023BB61E2
S315080C1CF07B681B7AFB61002387F8333010E097F872
S315080C1D00333097F8332079680A44527A07F1380148
S315080C1D100B4403F8182C97F83330013387F8333013
S315080C1D207B681B7A97F833209A42E8D307F10C03A1
S315080C1D30F96A1846FFF7DAFE034687F82B3097F848
S315080C1D402B3018463837BD4680BD00BF28200020EA
S315080C1D50542D0020B0B582B000AF78601A48FFF752
S315080C1D60EDFC0346002B29D0174B1A6B7B685B6876
S315080C1D7014461D460FCD0FC495E8070084E80700E6
S315080C1D80002111482AF008FC7B681B88013B9AB293
S315080C1D907B681A807B685B6803F11C027B685A6057
S315080C1DA07B685A687B6803F62C539A4204D17B6885
S315080C1DB003F10C027B685A60012300E000231846E5
S315080C1DC00837BD46B0BD00BF901B012080B500AFDB
S315080C1DD005E00F48FFF7BEFF0346002B14D00C4B4B
S315080C1DE01B88002BF5D105E00A48FFF7B3FF03461D
S315080C1DF0002B0BD0074B1B88002BF5D10022012199
S315080C1E000548FFF77DFC02E000BF00E000BF80BD7F
S315080C1E1028200020542D00200064004080B58CB08A
S315080C1E2000AF786007F11C0300221A605A609A60AA
S315080C1E30DA601A617B681B684F4A93424AD14F4A4B
S315080C1E404E4B1B6C43F0007313644C4B1B6C03F02A
S315080C1E500073BB61BB69494A484B1B6B43F00203D1
S315080C1E601363464B1B6B03F002037B617B694FF4D0
S315080C1E700073FB6102233B620323BB6201237B6273
S315080C1E800923FB6207F11C0319463D482BF0AEFDEE
S315080C1E904FF48073FB6102233B620323BB6201236D
S315080C1EA07B620923FB6207F11C03194634482BF0A5
S315080C1EB09DFD0022012114202AF0B6FE00220421E1
S315080C1EC013202AF0B1FE14202AF0CAFE13202AF099
S315080C1ED0C7FE4CE07B681B682A4A934247D1274ABF
S315080C1EE0264B1B6C43F080631364244B1B6C03F06A
S315080C1EF080633B613B69214A204B1B6B43F0020311
S315080C1F0013631E4B1B6B03F00203FB60FB68402339
S315080C1F10FB6102233B620323BB6201237B62092319
S315080C1F20FB6207F11C03194615482BF05FFD2023AD
S315080C1F30FB6102233B620323BB6201237B620923F9
S315080C1F40FB6207F11C0319460D482BF04FFD0022C6
S315080C1F50022140202AF068FE002205213F202AF0A3
S315080C1F6063FE40202AF07CFE3F202AF079FE00BF53
S315080C1F703037BD4680BD00BF0064004000380240C3
S315080C1F80000402400068004080B58AB000AF3B46AA
S315080C1F9028220021184637F01FF82C4B2C4A1A60B9
S315080C1FA02A4B2C4A1A63294B2B4A5A63274B002275
S315080C1FB09A61264B0122DA61244B00221A62234BC2
S315080C1FC000225A62214B00229A62204B0022DA62C6
S315080C1FD01E4B00229A601D4B0022DA601B4B4FF4F5
S315080C1FE0A0221A61194B4FF4C0025A61174B0422EE
S315080C1FF05A6016482AF0DCF80346002B00D0FEE798
S315080C200000237B610023BB610123FB6100233B603A
S315080C201000237B600023BB600023FB6000233B612D
S315080C202001233B620E237B623B46194607482AF07E
S315080C2030E3F90346002B00D0FEE7012202210448EF
S315080C2040FFF75EFB00BF2837BD4680BD901B0120FD
S315080C205000640040D01B0120EC1B012080B58AB01F
S315080C206000AF3B4628220021184636F0B5FF304B08
S315080C2070304A1A602E4B304A1A632D4B2F4A5A6334
S315080C20802B4B00229A612A4B0122DA61284B00223B
S315080C20901A62274B00225A62254B00229A62244B5D
S315080C20A00022DA62224B4FF080429A60204B0022C3
S315080C20B0DA601F4B4FF4A0221A611D4B4FF4C00275
S315080C20C05A611B4B04225A6019482AF071F80346C8
S315080C20D0002B06D000BF16482AF06AF80346002BD8
S315080C20E0F9D100237B610023BB610123FB6100232B
S315080C20F03B6000237B600023BB600023FB6000234E
S315080C21003B6101233B620E237B623B46194608481A
S315080C21102AF072F90346002B00D0FEE701220221B1
S315080C21200448FFF7EDFA00BF2837BD4680BD00BF4F
S315080C2130901B012000640040D01B0120EC1B0120E1
S315080C214080B500AF00201FF04BFF0246024B1A6009
S315080C2150FFF71AFF00BF80BD8C1B012080B485B029
S315080C216000AFF860B9601346FB71FB79002B06D0FB
S315080C2170FB685A69BB681A43FB685A6106E0FB6838
S315080C21805A69BB68DB431A40FB685A6100BF1437AF
S315080C2190BD465DF8047B704780B483B000AF7860A9
S315080C21A07B681B689B6803F08063002B0DD17B68EA
S315080C21B01B689B6803F00063002B06D17B681B68C1
S315080C21C09B6803F08053002B01D0012300E0002309
S315080C21D0DBB218460C37BD465DF8047B704700BF6A
S315080C21E0B0B592B000AF7860396007F120032422AD
S315080C21F00021184636F0F0FE07F10C0300221A608F
S315080C22005A609A60DA601A61002387F847303B688F
S315080C22101B88002B01D10323E5E000220221744818
S315080C2220FFF79CFF3B685B6807F120041D460FCD42
S315080C22300FC40FCD0FC42B6823603B681B88013B6A
S315080C22409AB23B681A803B685B6803F124023B68C8
S315080C22505A603B685A68396841F28C630B449A4257
S315080C226004D13B6803F10C023B685A600122022137
S315080C22705F48FFF773FF7B6A9B0EDBB203F007031D
S315080C2280DBB23B733B7B022B3BD17B6ADBB203F0A5
S315080C22900303DAB2FB7C62F30103FB747B6A9B08CB
S315080C22A09BB2C3F30D039AB23B6962F397233B6166
S315080C22B07B6A1B0CDBB203F00103DAB27B7C62F39C
S315080C22C041037B747B6A5B0CDBB203F00103DAB265
S315080C22D07B7C62F300037B747B6A9B0CDBB203F09A
S315080C22E00103DAB23B7C62F3C7133B747B6ADB0CE3
S315080C22F0DBB203F07F03DAB23B7C62F306033B7472
S315080C230044E07B6ADBB203F00303DAB2FB7C62F3CC
S315080C23100103FB747B6A1B0CDBB203F00103DAB214
S315080C23207B7C62F341037B747B6A5B0CDBB203F048
S315080C23300103DAB27B7C62F300037B747B6A5B0A6B
S315080C2340DBB203F07F03DAB23B6962F390233B619D
S315080C23507B6ADB0CDBB203F07F03DAB23B7C62F3FD
S315080C236006033B747B6A9B0CDBB203F00103DAB2FF
S315080C23703B7C62F3C7133B747B6A9B08DBB203F0A6
S315080C23807F03DAB2BB7C62F34703BB743B6BDBB2ED
S315080C23903B753B7D082B01D908233B75002387F831
S315080C23A0473012E097F8473097F8472007F148016D
S315080C23B00A4412F8142C07F148010B4403F8332C81
S315080C23C097F84730013387F847303B7D97F8472015
S315080C23D09A42E7D37B681D4607F10C040FCC0FC550
S315080C23E023682B60002318464837BD46B0BD00BF8E
S315080C23F00068004080B584B000AF03463960FB71B5
S315080C24000423FB73FB79022B02D0042B07D00DE0B7
S315080C24100A493868FFF7E4FE0346FB7309E00849E6
S315080C24203868FFF7DDFE0346FB7302E00223FB73F5
S315080C243000BFFB7B18461037BD4680BDF0810020D7
S315080C24407C980020B0B483B000AF786039603B68E4
S315080C24501B88A02B01D1012324E03B689A687B6872
S315080C246014461D460FCD0FC40FCD0FC42B68236021
S315080C24703B681B8801339AB23B681A803B689B6899
S315080C248003F124023B689A603B689A68396841F202
S315080C24908C630B449A4204D13B6803F10C023B68EB
S315080C24A09A60002318460C37BD46B0BC704700BF6F
S315080C24B080B582B000AF00237B600023FB701FF051
S315080C24C06DFC002200211B482AF0AAF91A4B5B68FE
S315080C24D09B0E03F007037B607B68022B02D0042B50
S315080C24E00FD020E015491448FFF7ACFF0346FB70E4
S315080C24F0FB78002B14D1124B1B6818461FF0ACFE48
S315080C25000EE010490C48FFF79DFF0346FB70FB785D
S315080C2510002B07D10A4B1B6818461FF09DFE01E0DD
S315080C252000BF00E000BF1FF051FC00BF0837BD46D6
S315080C253080BD00BF141C0120701C0120F0810020F6
S315080C2540101C01207C980020B0B582B000AF7860D2
S315080C25503960002201211E48FFF700FE3B681B88E4
S315080C2560782B06D1012201211948FFF7F7FD012323
S315080C25702AE03B689A687B6814461D460FCD0FC443
S315080C258095E8070084E807003B681B8801339AB274
S315080C25903B681A803B689B6803F11C023B689A608F
S315080C25A03B689A683B6803F62C539A4204D13B68FD
S315080C25B003F10C023B689A60012201210448FFF7DB
S315080C25C0CDFD00F031F9002318460837BD46B0BDDD
S315080C25D00068004080B485B000AF78600023FB60CB
S315080C25E07B685B79C3F30003DBB25A047B685B79BF
S315080C25F0C3F34003DBB21B041A437B685B68C3F363
S315080C26008D239BB29B0013437A68D279C2F30102DD
S315080C2610D2B21A437B681B79C3F3C013DBB29B0493
S315080C26201A437B681B79C3F30603DBB2DB0413433B
S315080C2630FB607B681B789B06FA681343FB60FB6898
S315080C264018461437BD465DF8047B704780B485B0D0
S315080C265000AF78600023FB607B681B79C3F3060325
S315080C2660DBB2DA047B681B79C3F3C013DBB29B04B9
S315080C26701A437B685B79C3F30003DBB25B041A432A
S315080C26807B685B79C3F34003DBB21B041A437B6894
S315080C26905B68C3F38623DBB25B021A437B689B79C0
S315080C26A0C3F34603DBB29B0013437A68D279C2F3B1
S315080C26B00102D2B21343FB607B681B789B06FA684F
S315080C26C01343FB60FB6818461437BD465DF8047B5C
S315080C26D0704700BF80B58EB000AF7860042387F8CA
S315080C26E02B3000237B63002387F8333007F10C0368
S315080C26F000221A605A609A60DA601A615A619A6105
S315080C27000023FB627B681B78022B06D1264BFB62E7
S315080C27107868FFF75FFF78630CE07B681B78042BFF
S315080C272006D1224BFB627868FFF790FF786301E0CD
S315080C2730022334E07B681B7A082B01D903232EE08D
S315080C27407B6B3B6104237B610023BB617B681B7A33
S315080C2750FB61002387F8333010E097F8333097F88D
S315080C2760332079680A44527A07F138010B4403F886
S315080C2770182C97F83330013387F833307B681B7A7B
S315080C278097F833209A42E8D307F10C03F96A1846EE
S315080C2790FFF7DAFE034687F82B3097F82B301846E6
S315080C27A03837BD4680BD00BF98670020C47400202A
S315080C27B0B0B582B000AF78601A48FFF7EDFC034657
S315080C27C0002B29D0174B1A6B7B685B6814461D4681
S315080C27D00FCD0FC495E8070084E8070000211148BF
S315080C27E029F0DAFE7B681B88013B9AB27B681A8053
S315080C27F07B685B6803F11C027B685A607B685A68C5
S315080C28007B6803F62C539A4204D17B6803F10C02BD
S315080C28107B685A60012300E0002318460837BD463A
S315080C2820B0BD00BF141C012080B500AF05E00F48F1
S315080C2830FFF7BEFF0346002B14D00C4B1B88002B4E
S315080C2840F5D105E00A48FFF7B3FF0346002B0BD07A
S315080C2850074B1B88002BF5D1002201210548FFF7F1
S315080C28607DFC02E000BF00E000BF80BD9867002039
S315080C2870C47400200068004080B58AB000AF3B469F
S315080C288028220021184636F0A7FB2C4B2C4A1A6036
S315080C28902A4B2C4A1A63294B2B4A5A63274B00227C
S315080C28A09A61264B0122DA61244B00221A62234BC9
S315080C28B000225A62214B00229A62204B0022DA62CD
S315080C28C01E4B00229A601D4B0022DA601B4B4FF4FC
S315080C28D0A0221A61194B4FF4C0025A61174B0422F5
S315080C28E05A60164829F064FC0346002B00D0FEE714
S315080C28F00E237B610023BB610123FB6100233B6034
S315080C290000237B600023BB600023FB6000233B6134
S315080C291001233B620E237B623B461946074829F086
S315080C29206BFD0346002B00D0FEE70122022104486A
S315080C2930FFF714FC00BF2837BD4680BD141C0120C8
S315080C294000680040541C0120701C012080B500AFA3
S315080C295000201FF045FB0246024B1A60FFF78CFF5E
S315080C296000BF80BD101C012080B588B000AF03469F
S315080C2970FB7107F10C0300221A605A609A60DA6040
S315080C29801A61FB79002B19D10E4A0E4B1B6B43F0BF
S315080C2990020313630B4B1B6B03F00203BB60BB6890
S315080C29A00423FB6001233B610223BB6100237B618B
S315080C29B007F10C03194604482BF018F800BF20370A
S315080C29C0BD4680BD003802400004024080B582B086
S315080C29D000AF0346FB71FB79002B03D10421034896
S315080C29E02BF0C8F900BF0837BD4680BD000402406D
S315080C29F080B400AF00BFBD465DF8047B704700BFCE
S315080C2A0080B400AF00BFBD465DF8047B704700BFBD
S315080C2A1080B400AF00BFBD465DF8047B704700BFAD
S315080C2A2080B400AF00BFBD465DF8047B704700BF9D
S315080C2A3080B500AF30F0B2F833F080F830F004FC13
S315080C2A4030F038FE33F0F8FA604834F013FC31F005
S315080C2A5071FF4CF61C2200215D4821F0EFFC5D4B02
S315080C2A601B78002B0AD05B4B1B781B011A460021DE
S315080C2A70594821F0E3FC574B00221A70574B1B7828
S315080C2A80002B16D0554B1B781A461346DB001344FD
S315080C2A905B011A460021524821F0D0FC4F4B1B789B
S315080C2AA05B001A4600214F4821F0C8FC4B4B00220C
S315080C2AB01A704D4B1B78002B16D04B4B1B781A46AD
S315080C2AC04FF48E7303FB02F31A460021474821F094
S315080C2AD0B5FC454B1B785B001A460021444821F08F
S315080C2AE0ADFC414B00221A70424B1B78002B12D0BE
S315080C2AF0404B1B78DB011A4600213F4821F09EFC0F
S315080C2B003C4B1B785B001A4600213C4821F096FC8E
S315080C2B10384B00221A703A4B1B78002B15D0384BC1
S315080C2B201B781A46742303FB02F31A460021354810
S315080C2B3021F084FC324B1B785B001A460021324884
S315080C2B4021F07CFC2E4B00221A70304B1B78002B84
S315080C2B5016D02E4B1B781A4613465B0013441B01E2
S315080C2B601A460021194821F069FC284B1B785B0092
S315080C2B701A460021264821F061FC244B00221A70C3
S315080C2B80244B1B78002B16D0224B1B781A4613465F
S315080C2B90DB0013449B001A4600211F4821F04EFC0B
S315080C2BA01C4B1B785B001A4600211C4821F046FC7E
S315080C2BB0184B00221A701A4B00221A70194B002255
S315080C2BC01A70194B0022DA6100BF80BD40CA012079
S315080C2BD0C01E02202A1A02207CEE0220020080C1A6
S315080C2BE048860120701A0220050080C108A8012019
S315080C2BF0101B02202B1A022054EF0120341A022033
S315080C2C00040080C1E0D30120AC1A0220070080C161
S315080C2C104C1B0220030080C154FE0120B01B02206D
S315080C2C209F1603202F1A0220B81C012080B400AF6F
S315080C2C30034B01221A7000BFBD465DF8047B704732
S315080C2C40DC1C012080B400AF034B1B781846BD462C
S315080C2C505DF8047B704700BFEB1C012080B500AF04
S315080C2C606E4B1B78002B46D101224FF040416C4825
S315080C2C702BF002FA6B4B1B681B889BB21A46694BE6
S315080C2C801B685B889BB203FB02F35B0003F14043B2
S315080C2C901A46654B1A60634B1B681B889BB21A460F
S315080C2CA0604B1B685B889BB203FB02F35B001A46FE
S315080C2CB05C4B1B681B889BB219465A4B1B685B8876
S315080C2CC09BB203FB01F35B00134403F14043184624
S315080C2CD0544B1B681B889BB21A46524B1B685B8865
S315080C2CE09BB203FB02F35B00194623F0CFFD4B4B5B
S315080C2CF001221A7090E0494B1B78012B46D1494B9F
S315080C2D001B681B889BB21A46464B1B685B889BB292
S315080C2D1003FB02F35B0003F14043012219464048CA
S315080C2D202BF0AAF93F4B1B681B889BB21A463D4BE6
S315080C2D301B685B889BB203FB02F35B001A46394B94
S315080C2D401B681B889BB21946364B1B685B889BB263
S315080C2D5003FB01F35B00134403F140431A46324B61
S315080C2D601A60304B1B681B889BB21A462D4B1B6886
S315080C2D705B889BB203FB02F35B0019464FF040409D
S315080C2D8023F084FD254B02221A7045E0254B1B685F
S315080C2D901B889BB21A46234B1B685B889BB203FBAA
S315080C2DA002F35B001A461F4B1B681B889BB219461D
S315080C2DB01C4B1B685B889BB203FB01F35B0013443B
S315080C2DC003F140430122194615482BF055F9164BC9
S315080C2DD04FF040421A60134B1B681B889BB21A466D
S315080C2DE0104B1B685B889BB203FB02F35B0003F179
S315080C2DF0404318460B4B1B681B889BB21A46094B5B
S315080C2E001B685B889BB203FB02F35B00194623F035
S315080C2E103DFD024B00221A7000BF80BDEA1C012042
S315080C2E20F81C012008AF00200CAF002080B500AFBD
S315080C2E30104B00221A70104B1B68B3F5A67F06D9E7
S315080C2E400E4B01221A700C4835F0D4FF02E00B4BDE
S315080C2E5000221A7032F0D0FB2FF0F4FB30F0C8FACF
S315080C2E6030F034F8064B1B78012B01D122F0C8FD43
S315080C2E7000BF80BDDC1C0120EC1C0120E81C0120D5
S315080C2E80090080C180B483B000AF78607B680022EB
S315080C2E901A70404B5B891A463E4BDB7903FB02F3EF
S315080C2EA0002B00DA01335B109AB23A4BB3F90230B5
S315080C2EB09BB213449BB2153B9BB21AB27B685A80E1
S315080C2EC0344B1A89334B9B799BB212FB03F39BB297
S315080C2ED01BB2002B00DA01335B101BB29AB22D4BD6
S315080C2EE0B3F904309BB213449BB20A3B9BB21AB299
S315080C2EF07B689A80274B5A89264BDB799BB212FB47
S315080C2F0003F39BB2153B9BB21BB21A467B689A60BD
S315080C2F10204B1A891F4B9B799BB212FB03F39BB26E
S315080C2F20163B9BB21BB21A467B68DA60194B5A8958
S315080C2F307B68B3F902309BB2D31A9AB2154BB3F924
S315080C2F4002309BB213449BB2153B9BB21AB27B68F8
S315080C2F501A82104B1A897B68B3F904309BB2D31AC0
S315080C2F609AB20C4BB3F904309BB213449BB20A3B8E
S315080C2F709BB21AB27B685A82064B9A897B689A82EC
S315080C2F807B68054A9A6100BF0C37BD465DF8047B21
S315080C2F90704700BF20A403203CA4032080B485B04E
S315080C2FA000AF78600023FB810023BB81214B1B7883
S315080C2FB0012B0ED1204B1B681A785B781B02134326
S315080C2FC0FB811D4B1B689A78DB781B021343BB816C
S315080C2FD00DE0194B1B689A78DB781B021343FB81AF
S315080C2FE0154B1B681A785B781B021343BB817B68ED
S315080C2FF000221A70FB895B089BB20D3B9BB21AB276
S315080C30007B685A80BB895B089BB20C3B9BB21AB295
S315080C30107B689A80FB89A3F122027B689A60BB893C
S315080C3020A3F12D027B68DA6000BF1437BD465DF844
S315080C3030047B70476DA5032008AF002080B582B0CD
S315080C304000AF0023FB71774B1B68B3F57A7F02D36D
S315080C3050744835F0CFFE734B1B68B3F5FA7F06D26E
S315080C3060714B01221A70714B00221A7005E06E4BD7
S315080C307000221A706D4B01221A706D4B1B78002BAF
S315080C308005D16B4B01221A706A48FFF787FF6A4B0A
S315080C30901B68002B5DD0FEF73FF900F03FFC674B31
S315080C30A01B78012B11D1664B1B781A46654B9B5C1A
S315080C30B0002B0AD1624B1B7818461EF08DFB604B11
S315080C30C01B781A465F4B012199545B4B18685E4B6B
S315080C30D01B681B889BB21A465B4B1B685B889BB2AA
S315080C30E003FB02F35B001A46574B1B681B889BB203
S315080C30F01946554B1B685B889BB203FB01F35B00B7
S315080C31001344514A1268128892B211464E4A1268F2
S315080C3110528892B202FB01F25200134403F1404367
S315080C31201946494B1B681B889BB21A46464B1B68AB
S315080C31305B889BB224F06EF83F4B00221A60434B17
S315080C314005221A70424B01221A70424B0022DA6190
S315080C31504FE13B4B1B781A463F4B9B5C002B03D12C
S315080C316032F014FF03F040F9FFF74AFC3B4B1B788F
S315080C3170012B03D03A4B1B88002B0BD0394B1B78F1
S315080C3180002B07D0324B1B78002B03D1364B1B7800
S315080C3190012B03D1354B1B78012B37D134492548E4
S315080C31A034F0B4FF334834F017F8334B1B68184621
S315080C31B034F012F8304B5B68184634F00DF82E4B89
S315080C31C01B69184634F008F82B4B9B69184634F0E3
S315080C31D003F8294B1B6A184633F0FEFF274B0122CE
S315080C31E01A700023FB710AE0FB79254A0021D15499
S315080C31F0FB79244A0021D154FB790133FB71FB7905
S315080C3200032BF1D9204B01221A70D1E00C4B1B78F9
S315080C32101A46114B9B5C012B38D11549054834F0DD
S315080C322075FFC5E0E01C0120E91C0120EB1C012000
S315080C3230941C0120B81C0120D81C0120D28903201B
S315080C324082DF00209812022008AF0020F11C012012
S315080C3250F21C0120981C0120FC190220A1A40320B1
S315080C3260D026032091EA0120D0890320F8190220E0
S315080C3270D41C01202CBF002094190220F31C012019
S315080C32807479032078790320F01C01205F4B002207
S315080C32901A705F4B0022DA615E4B1B78002B08D044
S315080C32A05C4B00221A705C4B1B7819465B4803F082
S315080C32B031FC5B4B1B78012B11D15A4B1B78012B1C
S315080C32C00DD1594B1B78012B09D1584B1B78022B66
S315080C32D005D1574B1B78012B01D103F073FA32F049
S315080C32E081FB2FF075FAFFF793FBFFF799FB2FF08D
S315080C32F0FDFE30F05FF933F0E1FF32F0AFFEFFF779
S315080C330077FB4C4B1B78012B4FD14B4B1B78002B67
S315080C331003D14A4B1B78002B3FD0494B1B88494A93
S315080C33201B01134408331B78032B3ED9444B1B88CB
S315080C33300133444A1B01134408331B78032B34D935
S315080C33403F4B1B8802333F4A1B01134408331B7837
S315080C3350032B2AD93A4B1B8803333A4A1B011344CD
S315080C336008331B78032B20D9354B1B880433354A75
S315080C33701B01134408331B78032B16D9304B1B88B7
S315080C33800533304A1B01134408331B78032B0CD91D
S315080C33902D4BDB681B79032B07D92C48FFF772FDDD
S315080C33A02B492A4834F0B2FE02E0284B0022DA6197
S315080C33B033F0E6FD1A4B1B78002B01D100F018FBF5
S315080C33C0244B1B78002B0CD1234B1B78002B02D0DB
S315080C33D0FDF7A2FF01E000F00BFB1F4B00221A7051
S315080C33E007E0FDF799FF1B4B1B78013BDAB2194B2B
S315080C33F01A701A4B93F90030002B02D1184835F085
S315080C3400F9FC00BF0837BD4680BD00BFF01C012083
S315080C3410B81C0120F31C012011F400209419022079
S315080C342091EA0120CC1302209C16032082DF00208F
S315080C3430CD190220090080C166380320653803209F
S315080C34407079032050BF0020B0D30120981C0120AE
S315080C3450B41C0120F11C0120F21C0120DC1C0120EB
S315080C3460E01C012080B483B000AF7860044A7B6806
S315080C3470136000BF0C37BD465DF8047B704700BF70
S315080C3480D81C012080B500AF034835F025FC03484D
S315080C349035F022FC00BF80BDE01C0120E41C012095
S315080C34A080B400AFFEE700BF80B400AF384B1B6892
S315080C34B01B889BB2B3F5F07F0AD1354B1B685B882A
S315080C34C09BB2B3F5887F03D1324B01221A7059E0AF
S315080C34D02F4B1B681B889BB2B3F5207F0AD12C4B4C
S315080C34E01B685B889BB2B3F5F07F03D1294B01228D
S315080C34F01A7047E0264B1B681B889BB2B3F5487FAE
S315080C35000AD1234B1B685B889BB2B3F5F07F03D1BA
S315080C3510204B03221A7035E01D4B1B681B889BB287
S315080C3520B3F5A07F0AD11A4B1B685B889BB2B3F51F
S315080C3530F07F03D1174B01221A7023E0144B1B683A
S315080C35401B889BB2B3F5487F0AD1114B1B685B8865
S315080C35509BB2B3F5167F03D10E4B03221A7011E0FA
S315080C35600B4B1B681B889BB2B3F5806F0AD1084BB3
S315080C35701B685B889BB2B3F5407F03D1054B0422CD
S315080C35801A70FFE700BFBD465DF8047B704700BFA5
S315080C359008AF0020F41C012080B500AF0D4812F0CE
S315080C35A065FCFFF781FF0C4B1B78042B03D00A4BE9
S315080C35B01B78012B14D1094B1B681B889BB219B2BB
S315080C35C0064B1B685B889BB21BB21A4601202EF071
S315080C35D005FE17E000002863F41C012008AF002044
S315080C35E09D4B1B78032B0DD19C4B1B681B889BB2E0
S315080C35F019B29A4B1B685B889BB21BB21A460220FF
S315080C36002EF0ECFD964B00225A60954B00229A60E0
S315080C3610934B0022DA60924B00221A618F4B1B687F
S315080C36209B889BB2013B8E4A53618C4B1B685B890A
S315080C36309BB2013B8A4A9361884B1B689B889AB25A
S315080C3640864B1B68DB889BB213449BB2013B9BB22F
S315080C36501A46834BDA61814B1B685B899AB27F4B9E
S315080C36601B689B899BB213449BB2013B9BB21A46BF
S315080C36707B4B1A62794B1B685B889BB21A46774B55
S315080C36801B685B899BB21344744A1268928992B27E
S315080C36901344013B1A46724B9A62704B1B681B8883
S315080C36A09AB26E4B1B689B889BB213449AB26B4BAF
S315080C36B01B68DB889BB213449BB2013B9BB21A4630
S315080C36C0674B5A62654B1B685B889AB2634B1B68DF
S315080C36D05B899BB213449AB2604B1B689B899BB25D
S315080C36E013449AB25D4B1B68DB899BB213449BB29D
S315080C36F0013B9BB21A465A4B1A63584B1B681B88DC
S315080C37009AB2564B1B689B889BB213449AB2534B7E
S315080C37101B68DB889BB213449AB2504B1B681B89F7
S315080C37209BB213449BB2013B9BB21A464C4BDA62D2
S315080C37304B4B002283F83420494B002283F8352062
S315080C3740474B002283F83620454B464A1A60464BAF
S315080C375000221A60414B1B681B889BB21A46424BC7
S315080C37605A60414B00229A603C4B1B685B889BB2A3
S315080C37701A463D4BDA603C4B04221A61374B1B68E0
S315080C37801B889BB21A46354B1B685B889BB203FB9E
S315080C379002F35B001A46314B1B681B889BB2194611
S315080C37A02E4B1B685B889BB203FB01F35B0013442F
S315080C37B02A4A1268128892B21146284A1268528806
S315080C37C092B202FB01F25200134403F14043264A1B
S315080C37D05362254BFF225A61234BFF229A61224BD7
S315080C37E0002283F83020204B002283F831201E4B10
S315080C37F0002283F832201C4B4FF4C062DA611A4B54
S315080C380007221A62154B1B681B889BB21A46164B65
S315080C38109A62124B1B685B889BB21A46124BDA6289
S315080C3820124B00221A600D4B1B681B889BB21A465A
S315080C38300E4B5A600D4B00229A60084B1B685B882E
S315080C38409BB21A46094BDA60084B04221A61074BDD
S315080C38504FF040425A620BE0F41C012008AF0020DE
S315080C3860F81C012000680140D41D0120A01D012070
S315080C3870264BFF225A61254BFF229A61234B1022B5
S315080C388083F83020214B102283F831201F4B10224D
S315080C389083F832201D4B4FF4C062DA611B4B0722AA
S315080C38A01A621B4B1B681B889BB21A46174B9A62EB
S315080C38B0174B1B685B889BB21A46144BDA62154881
S315080C38C02AF0C2FA0346002B01D0FFF7E9FD114B8B
S315080C38D01B68104A1268526B42F001025A630022A6
S315080C38E00D490C482AF08AFB0346002B01D0FFF73A
S315080C38F0D7FD0122054907482AF080FB0346002B11
S315080C390001D0FFF7CDFD00BF80BD00BFA01D012073
S315080C391008AF0020F81C0120D41D012080B500AF8B
S315080C39202D4B1B781A462D4B9B5C002B02D12C4B2E
S315080C393000221A702B4B00221A602A4B00225A605E
S315080C3940284B00229A60274B0022DA60254B00226E
S315080C39501A61244B00225A62224B00225A61214BCF
S315080C396000229A611F4B002283F830201D4B00223F
S315080C397083F831201B4B002283F83220194B002286
S315080C3980DA61184B00221A62164B00229A62154B02
S315080C39900022DA620122134913482AF02FFB034648
S315080C39A0002B01D0FFF77CFD104B01221A700E4B31
S315080C39B01B6801225A620C4B1B6884331A460A4B45
S315080C39C01B6884331B6823F001031360064B1B68C2
S315080C39D001225A6200BF80BD82DF002098120220A5
S315080C39E010AF0020A01D0120F81C0120081E012084
S315080C39F080B500AF354B01221A70354B1B68012276
S315080C3A005A62334B1B6884331A46314B1B68843312
S315080C3A101B6843F0010313602D4B1B6801225A6285
S315080C3A202C4B93F90030012B4ED12B4B00221A60EC
S315080C3A302A4B1B681B889BB21A46274B5A60264B87
S315080C3A4000229A60254B1B685B889BB21A46224B50
S315080C3A50DA60214B04221A611F4B4FF040425A621E
S315080C3A601D4BFF225A611C4BFF229A611A4B1022DE
S315080C3A7083F83020184B102283F83120164B10226D
S315080C3A8083F83220144B4FF4C062DA61124B0722CA
S315080C3A901A62124B1B681B889BB21A460E4B9A620B
S315080C3AA00E4B1B685B889BB21A460B4BDA620122DB
S315080C3AB0094907482AF0A2FA0346002B01D0FFF75A
S315080C3AC0EFFC044B00221A7000BF80BD10AF00201B
S315080C3AD0F81C0120081E0120A01D012008AF00209B
S315080C3AE080B400AFBFF34F8F0549054BDB6803F471
S315080C3AF0E062044B1343CB60BFF34F8F00BFFDE767
S315080C3B0000ED00E00400FA0580B588B000AF7860D7
S315080C3B100023FB7707F1080300221A605A609A60A3
S315080C3B20DA601A6123F0AAFB1DF00EFB22F0C8FE20
S315080C3B301DF00AFBFFF7A6FC1DF006FB02F01CF8AD
S315080C3B401DF002FB1FF072FC1DF0FEFA1DF014FAB4
S315080C3B501DF0FAFA21F06AFE1DF0F6FAFEF7F0FAF5
S315080C3B601DF0F2FAFEF7F2FE1DF0EEFAFDF742FD35
S315080C3B701DF0EAFAFDF7B6FD1DF0E6FA23F0DEFCB9
S315080C3B8006F0F0F811F042FD21F0EAFC01E01DF018
S315080C3B90DBFA724B1B6818461EF06CFA0346002BB0
S315080C3BA0F5D16E4B1B6807F11F02002118461EF053
S315080C3BB085FA1DF0C9FA6A4B1B780133DBB203F0A0
S315080C3BC00103DAB2664B1A70664B1B780133DAB20C
S315080C3BD0644B1A7024F0BAFB634B1B78002B14D079
S315080C3BE0624B1B78002B10D15E4B1B78052B0CD126
S315080C3BF05F4B1B6801335E4A13605A4B00221A70DE
S315080C3C0023F098FE26F05EFB06E0564B1B78052B38
S315080C3C1002D1544B00221A70514B1B78002B00F022
S315080C3C209280544B1B78032B02D9524B00221A70E4
S315080C3C30504B1B78184627F0A7F84E4B1B780133C8
S315080C3C40DAB24C4B1A704C4B1B6801334A4A136058
S315080C3C50FFF704F8FCF752FE484B1B78012B41D1B1
S315080C3C6004233B723B7B2A2262F306033B733B7BA2
S315080C3C7043F080033B737B7B43F001037B737B7BB5
S315080C3C8043F002037B73FB682A2262F39023FB60E2
S315080C3C90BB7B6FF34703BB73FB7B6FF30103FB73B0
S315080C3CA002233B74BB7B082262F34703BB730223D4
S315080C3CB03B74334B1B7803F00303DAB2FB7B62F3DA
S315080C3CC00103FB7307F1080309334CF211021A803E
S315080C3CD007F108031846FDF7CFFF64201EF0CEF84F
S315080C3CE0FFF7FEFE01F078FFFFF7A0F8FFF7A6F93D
S315080C3CF01D4B1B78002B02D023F0DEFA12E01A4B70
S315080C3D001B78002B0ED11F4B1B680A2B05D91D4B94
S315080C3D100B221A6023F012FC04E01A4B1B680133C1
S315080C3D20184A1360144B1B68192B04D126F04AFF4A
S315080C3D30114B00221A60144B1B88002B7FF431AFF1
S315080C3D4000F024F82DE700BF044B1B6818461EF03C
S315080C3D5091F90346002BF7D123E700BF101E01206B
S315080C3D60141E0120151E0120D2890320D089032098
S315080C3D700C1E0120091E0120181E0120231A0120E1
S315080C3D80723803201C1E0120D026032080B584B06F
S315080C3D9000AF3B4600221A605A609A600023FB73F8
S315080C3DA00023BB813B461946002027F099FA3B793C
S315080C3DB0072B0AD1514B1B8843F001039AB24F4B80
S315080C3DC01A804F4B01221A7031E04D4B1B78012B90
S315080C3DD026D14C4B1B78012B22D14B4B1B78002B35
S315080C3DE01ED04A4B1B78012B1AD1454B00221A7050
S315080C3DF0474B1B78012B13D1464B1B78184626F0DC
S315080C3E00EFFB454B1B78184626F0A0FC434B1B785A
S315080C3E10184626F0FDFC424B1B78184623F0E4FCAA
S315080C3E20364B1B8823F001039AB2344B1A800123B4
S315080C3E30BB810EE03A46BB891146184627F0D4F9E1
S315080C3E403B79072B02D1FB7B0133FB73BB8901330F
S315080C3E50BB81344B1B88BA899A42EBD9FB7B9AB245
S315080C3E60304B1B889A4207D1244B1B8843F002031C
S315080C3E709AB2224B1A8006E0204B1B8823F00203C9
S315080C3E809AB21E4B1A80284B1B78012B07D11B4B59
S315080C3E901B8843F480439AB2184B1A8006E0174BDA
S315080C3EA01B8823F480439AB2144B1A801F4B1B6849
S315080C3EB0032B0AD91D4B04221A60104B5B8843F05E
S315080C3EC002039AB20D4B5A8006E00C4B5B8823F022
S315080C3ED002039AB2094B5A8027F016F80346002BB0
S315080C3EE007D0134B01221A70124B5B69184633F034
S315080C3EF059F900BF1037BD4680BD00BF448E03205C
S315080C3F0014BF002073380320D289032091EA0120BC
S315080C3F107238032082DF0020CC190220CD1902202A
S315080C3F20D48903206C790320A1A40320841B0120C7
S315080C3F30B31001209419022080B582B000AF7860C6
S315080C3F400B46FB70FB78002B04D1786820F02AF816
S315080C3F50002303E0786826F07DFE00231846083710
S315080C3F60BD4680BD80B582B000AF78600B46FB704D
S315080C3F70FB78002B04D1786823F02CFB002303E094
S315080C3F80786826F067FD002318460837BD4680BDBD
S315080C3F9080B582B000AF0023FB8000201EF020F80D
S315080C3FA002460D4B1A600023FB8007E0FB880B4A80
S315080C3FB00B4942F82310FB880133FB80FB88B3F5C9
S315080C3FC0806FF3D30523074A002107481DF07AFCB6
S315080C3FD000BF0837BD4680BD101E012014AF002057
S315080C3FE0ADDEADDE14BF0020093B0C0880B483B0EF
S315080C3FF000AF0023FB800023BB8000237B800023BB
S315080C40003B800023FB8000F06ABCFA888349134680
S315080C4010DB0013449B000B441B78012B40F00A82EF
S315080C4020FA887E491346DB0013449B000B44043381
S315080C40301B88B3F58C7F40F0CC80B988FA88774812
S315080C40401346DB0013449B00034401331878744A67
S315080C40502C2303FB01F3134402461A70B988FA8819
S315080C40606E481346DB0013449B000344023318784E
S315080C40706B4A2C2303FB01F31344013302461A70D3
S315080C4080B988FA8865481346DB0013449B00034439
S315080C409004331888624A2C2303FB01F313440233B6
S315080C40A002461A80B988FA885C481346DB00134422
S315080C40B09B00034408331B68D8B2594A2C2303FBCC
S315080C40C001F31344043302461A70B988FA88534824
S315080C40D01346DB0013449B0003440C331B68D8B20D
S315080C40E04F4A2C2303FB01F313440C3302461A7074
S315080C40F0B988FA8849481346DB0013449B000344E5
S315080C410014331A6846482C2303FB01F30344103373
S315080C41101A60B988FA8841481346DB0013449B0099
S315080C4120034410331A683E482C2303FB01F303445B
S315080C413014331A60B988FA8838481346DB001344D6
S315080C41409B00034420331A6835482C2303FB01F3E0
S315080C4150034408331A60B988FA8830481346DB00DA
S315080C416013449B00034418331A682D482C2303FB6D
S315080C417001F3034418331A60B988FA88274813469A
S315080C4180DB0013449B0003441C331B6898B2244A77
S315080C41902C2303FB01F313441C3302461A80BB88F9
S315080C41A0BA881F492C2000FB02F20A44143292EDFD
S315080C41B0007AF0EE006AC7EE267A194A2C2101FB22
S315080C41C003F313442033C3ED007ABB880133BB8059
S315080C41D082E3FA8811491346DB0013449B000B440F
S315080C41E004331B88B3F58D7F40F076830D4B1B7813
S315080C41F0002B00F09E80FA8808491346DB0013440E
S315080C42009B000B4401331A78074B93F827309A42D4
S315080C421040F08F8000233B8086E000BF9CF2022092
S315080C4220282E0120080080C1A0990320B988FA8895
S315080C42307E481346DB0013449B000344013318786D
S315080C42407B4A2C2303FB01F3134402461A70B988E4
S315080C4250FA8876481346DB0013449B000344023362
S315080C42601878734A2C2303FB01F3134401330246D3
S315080C42701A70B988FA886D481346DB0013449B00FC
S315080C42800344043318886A4A2C2303FB01F31344AA
S315080C4290023302461A80BB88654A2C2101FB03F3BC
S315080C42A01344043313221A70BB88614A2C2101FB70
S315080C42B003F313440C3301221A70BB885C4A2C2175
S315080C42C001FB03F3134410334FF07E521A60BB887C
S315080C42D0574A2C2101FB03F3134414334FF07E5237
S315080C42E01A60BB88524A2C2101FB03F3134408338A
S315080C42F04FF07E521A60B988FA884C481346DB0090
S315080C430013449B00034408331B6898B2484A2C2371
S315080C431003FB01F313441C3302461A80BB88013392
S315080C4320BB803B8801333B803B88052B7FF67EAFF1
S315080C4330D2E2B988FA883D481346DB0013449B0041
S315080C43400344013318783A4A2C2303FB01F313442C
S315080C435002461A70B988FA8834481346DB001344A7
S315080C43609B00034402331878314A2C2303FB01F3D0
S315080C43701344013302461A70B988FA882B48134637
S315080C4380DB0013449B00034404331888284A2C2367
S315080C439003FB01F31344023302461A80BB88244AF2
S315080C43A02C2101FB03F31344043313221A70BB8824
S315080C43B01F4A2C2101FB03F313440C3301221A70F8
S315080C43C0BB881B4A2C2101FB03F3134410334FF013
S315080C43D07E521A60BB88164A2C2101FB03F3134440
S315080C43E014334FF07E521A60BB88114A2C2101FBFC
S315080C43F003F3134408334FF07E521A60B988FA88CF
S315080C44000A481346DB0013449B00034408331B6815
S315080C441098B2074A2C2303FB01F313441C330246B8
S315080C44201A80BB880133BB8056E200BF9CF202207F
S315080C4430282E0120FA8892491346DB0013449B0068
S315080C44400B441B78022B40F04782FA888C4913469A
S315080C4450DB0013449B000B4404331B88B3F58C7F99
S315080C446040F0E4807988FA8885481346DB001344C3
S315080C44709B00034401331878824A2C2303FB01F36F
S315080C4480134403F5305302461A707988FA887C4827
S315080C44901346DB0013449B00034402331878794A0D
S315080C44A02C2303FB01F31A4442F601431344024638
S315080C44B01A707988FA8872481346DB0013449B00F5
S315080C44C00344043318886F4A2C2303FB01F31A445C
S315080C44D042F60243134402461A807988FA886848D9
S315080C44E01346DB0013449B00034408331B68D8B2FD
S315080C44F0644A2C2303FB01F31A4442F6044313447F
S315080C450002461A707988FA885D481346DB0013440C
S315080C45109B0003440C331B68D8B25A4A2C2303FB62
S315080C452001F31A4442F60C43134402461A7079886E
S315080C4530FA8853481346DB0013449B000344143390
S315080C45401A6850482C2303FB01F3C11842F6104392
S315080C45500B441A607988FA8849481346DB001344D9
S315080C45609B00034410331A6846482C2303FB01F3BB
S315080C4570C11842F614430B441A607988FA884048E5
S315080C45801346DB0013449B00034420331A683D484A
S315080C45902C2303FB01F3C11842F608430B441A609B
S315080C45A07988FA8836481346DB0013449B00034483
S315080C45B018331A6833482C2303FB01F3C11842F647
S315080C45C018430B441A607988FA882D481346DB0081
S315080C45D013449B0003441C331B6898B2294A2C23AA
S315080C45E003FB01F31A4442F61C43134402461A8091
S315080C45F07A887B8823492C2000FB03F3194442F65E
S315080C460014430B4493ED007AF0EE006AC7EE267A53
S315080C46101C492C2303FB02F3CA1842F62043134405
S315080C4620C3ED007A7B8801337B8055E1FA881449FF
S315080C46301346DB0013449B000B4404331B88B3F569
S315080C46408D7F40F04981104B1B78002B00F0B7800A
S315080C4650FA880B491346DB0013449B000B440133C1
S315080C46601A780A4B93F827309A4240F0A8807B8830
S315080C467001339AB2064B1A8000233B809AE000BF9E
S315080C46809CF20220282E0120080080C1A099032044
S315080C4690707903207988FA8897481346DB00134407
S315080C46A09B00034401331878944A2C2303FB01F32B
S315080C46B0134403F5305302461A707988FA888E48E3
S315080C46C01346DB0013449B000344023318788B4AC9
S315080C46D02C2303FB01F31A4442F601431344024606
S315080C46E01A707988FA8884481346DB0013449B00B1
S315080C46F0034404331888814A2C2303FB01F31A4418
S315080C470042F60243134402461A807B887B4A2C21C4
S315080C471001FB03F31A4442F60443134413221A709A
S315080C47207B88764A2C2101FB03F31A4442F60C4388
S315080C4730134401221A707B88704A2C2101FB03F35F
S315080C47401A4442F6104313444FF07E521A607B8883
S315080C47506A4A2C2101FB03F31A4442F61443134408
S315080C47604FF07E521A607B88644A2C2101FB03F3B6
S315080C47701A4442F6084313444FF07E521A6079885D
S315080C4780FA885D481346DB0013449B000344083340
S315080C47901B6898B2594A2C2303FB01F31A4442F6B8
S315080C47A01C43134402461A807B8801337B803B8862
S315080C47B001333B803B88052B7FF66CAF8CE0798800
S315080C47C0FA884D481346DB0013449B000344013317
S315080C47D018784A4A2C2303FB01F3134403F5305388
S315080C47E002461A707988FA8843481346DB00134444
S315080C47F09B00034402331878404A2C2303FB01F32D
S315080C48001A4442F60143134402461A707988FA8808
S315080C481039481346DB0013449B00034404331888B9
S315080C4820364A2C2303FB01F31A4442F6024313447B
S315080C483002461A807B88314A2C2101FB03F31A4461
S315080C484042F60443134413221A707B882B4A2C21F4
S315080C485001FB03F31A4442F60C43134401221A7063
S315080C48607B88264A2C2101FB03F31A4442F6104393
S315080C487013444FF07E521A607B88204A2C2101FB88
S315080C488003F31A4442F6144313444FF07E521A604B
S315080C48907B881A4A2C2101FB03F31A4442F6084377
S315080C48A013444FF07E521A607988FA8812481346D8
S315080C48B0DB0013449B00034408331B6898B20F4A69
S315080C48C02C2303FB01F31A4442F61C4313440246F9
S315080C48D01A807B8801337B80FB880133FB80084B6D
S315080C48E01B88FA889A42FFF490AB00BF0C37BD467A
S315080C48F05DF8047B704700BF9CF20220282E01202D
S315080C4900000080C1B0B58EB000AF3B4600221A60DD
S315080C49105A609A60DA601A610023BB61002387F833
S315080C492037300023BB860023FB750023BB75002399
S315080C49307B75002387F833304FF00003FB620023A6
S315080C4940BB62002387F82730002387F8263000231C
S315080C495087F8253000233B620023FB770023BB77BF
S315080C496000237B77A84B5B8843F004039AB2A64BCB
S315080C49705A8002233B703B792A2262F306033B7169
S315080C49803B796FF3C7133B717B7943F001037B715A
S315080C49907B7943F002037B717B686FF397237B600B
S315080C49A0FB796FF30103FB7100233B7208233B72FF
S315080C49B0964B93F82730BB75BB7D1B09DBB25AB2F5
S315080C49C0BB7D1B015BB213435BB2BB75BB7D9B10F6
S315080C49D05BB203F033035AB2BB7D9B005BB223F088
S315080C49E033035BB213435BB2BB75BB7D5B105BB227
S315080C49F003F055035AB2BB7D5B005BB223F055033B
S315080C4A005BB213435BB2BB75814B1B797B757B7DA4
S315080C4A101B09DBB25AB27B7D1B015BB213435BB23B
S315080C4A207B757B7D9B105BB203F033035AB27B7D9F
S315080C4A309B005BB223F033035BB213435BB27B750B
S315080C4A407B7D5B105BB203F055035AB27B7D5B0032
S315080C4A505BB223F055035BB213435BB27B756D4BAC
S315080C4A601B6801336B4A13606A4B1B68312B05D9DB
S315080C4A70684B00221A60012387F82630002387F832
S315080C4A80373000F036BC0023BB8600F029BC97F8FB
S315080C4A9037309BB2A1339BB2C3F30D039AB27B6832
S315080C4AA062F397237B603B460933BB6197F8373033
S315080C4AB0BA8E59492C2000FB02F24FF4305000FBF9
S315080C4AC003F313440B441B78FB75FB7D1B09DBB204
S315080C4AD05AB2FB7D1B015BB213435BB2FB75FB7DC4
S315080C4AE09B105BB203F033035AB2FB7D9B005BB29F
S315080C4AF023F033035BB213435BB2FB75FB7D5B1090
S315080C4B005BB203F055035AB2FB7D5B005BB223F034
S315080C4B1055035BB213435BB2FB75404B93F85630A7
S315080C4B20012B11D197F83730BA8E3B492C2000FB54
S315080C4B3002F24FF4305000FB03F313440B440133D9
S315080C4B401B7887F8333004E097F83730013387F849
S315080C4B5033300023BB7751E0BA7F31491346DB006B
S315080C4B609B1A5B00CA184CF6FA0313441A7897F882
S315080C4B703730B98E28482C2404FB01F14FF43054F5
S315080C4B8004FB03F30B4403441B789A4231D1BA7FD6
S315080C4B9023491346DB009B1A5B000B4403F5494378
S315080C4BA01A7897F83730B98E1B482C2404FB01F178
S315080C4BB04FF4305404FB03F30B44034401331B78C2
S315080C4BC09A4216D101237B77164B1B680133154A7B
S315080C4BD01360144B1A68144BA3FB02135B0940F2BF
S315080C4BE0DC5101FB03F3D31A002B21D10123FB77EC
S315080C4BF01EE000237B77BB7F0133BB770B4B1B78FF
S315080C4C00BA7F9A42A8D314E0448E0320A0990320B5
S315080C4C107CEE022028860120282E0120F41780C15C
S315080C4C20C01E02202C860120F11976050A0080C1C7
S315080C4C3000BF97F83730BA8EBF492C2000FB02F21A
S315080C4C404FF4305000FB03F313440B4420331B681A
S315080C4C50FB6297F83730BA8EB74C2C2101FB02F061
S315080C4C604FF4305101FB03F1014421442431096806
S315080C4C700131B1482C2404FB02F24FF4305404FBE6
S315080C4C8003F3134403442433196097F83730BA8E68
S315080C4C90A9492C2000FB02F24FF4305000FB03F319
S315080C4CA013440B4402331B88B3F58D7F40F09D816A
S315080C4CB097F83730BA8EA0492C2000FB02F24FF435
S315080C4CC0305000FB03F313440B4424331B68B3F531
S315080C4CD0FA6F12D9012387F8273097F83730BA8E2E
S315080C4CE095492C2000FB02F24FF4305000FB03F3DD
S315080C4CF013440B44243300221A600023BB6297F832
S315080C4D002730012B23D197F83730BA8E97F83710FE
S315080C4D10B88E894C2C2505FB00F04FF4305505FB55
S315080C4D2001F1014421442031D1ED007AB7EE007A25
S315080C4D3077EE877A80492C2000FB02F24FF430502C
S315080C4D4000FB03F313440B442033C3ED007AFA7DBE
S315080C4D50BB7D9A4238D1D7ED0B7A9FED787AF4EE73
S315080C4D60C77AF1EE10FA10DB97F83730BA8E72491B
S315080C4D702C2000FB02F24FF4305000FB03F31344D3
S315080C4D800B4420334FF000021A60D7ED0B7AFDEE78
S315080C4D90E77A17EE903A9A02694B1B689B061343FF
S315080C4DA007EE903AF8EEE77AC7ED0B7A644B1B6878
S315080C4DB00133634A1360624B1B68052B40F2398238
S315080C4DC05F4B00221A6034E2FA7D7B7D9A4227D12A
S315080C4DD0D7ED0B7A9FED5B7AF4EEC77AF1EE10FA03
S315080C4DE010DB97F83730BA8E53492C2000FB02F2A9
S315080C4DF04FF4305000FB03F313440B4420334FF0AD
S315080C4E0000021A60D7ED0B7AFDEEE77A17EE903AA8
S315080C4E109B0207EE903AF8EEE77AC7ED0B7A08E2B2
S315080C4E2097F83730BA8E44492C2000FB02F24FF41F
S315080C4E30305000FB03F313440B441B78F82B19D1A1
S315080C4E40414B1B689B0207EE903AF8EEE77AC7EDE2
S315080C4E500B7A012387F825303B4B1B6801333A4AFA
S315080C4E601360394B1B68232B40F2E381364B002227
S315080C4E701A60DEE197F83730BA8E2F492C2000FBE2
S315080C4E8002F24FF4305000FB03F313440B441B7827
S315080C4E90F02B0AD14FF00003FB622C4B5B8823F4F2
S315080C4EA0F8439AB2294B5A80C3E17B7F012B74D104
S315080C4EB0274B1B78002B09D1264BFB6202233B623E
S315080C4EC0254B1B68DB003A6A13433B62204B1B7865
S315080C4ED0012B09D1214BFB6202233B621E4B1B683B
S315080C4EE0DB003A6A13433B6297F83730BA8E396A55
S315080C4EF007EE901AF8EE677A0F492C2000FB02F29F
S315080C4F004FF4305000FB03F313440B442033C3ED2A
S315080C4F10007AFB7F012B40F08C810F4B1B68002B12
S315080C4F201ED00B4B1B78002B1AD10B4B1B68013B65
S315080C4F30094A13602EE000BF282E012000FF7F4788
S315080C4F403086012000000043348601209C8F032004
S315080C4F50388601200000094318BF002000808443CE
S315080C4F60814B1B68002B07D1804B1B78002B03D178
S315080C4F707E4B01221A700DE07B4B1B6801337A4A73
S315080C4F801360794B1B684EF65F22934202D9764B17
S315080C4F9000221A600023FB774BE1D7ED0B7A9FEDC5
S315080C4FA0747AF4EEC77AF1EE10FA10DB97F837300C
S315080C4FB0BA8E70492C2000FB02F24FF4305000FBDD
S315080C4FC003F313440B4420334FF000021A60D7ED59
S315080C4FD00B7AFDEEE77A17EE903A9B0207EE903ABB
S315080C4FE0F8EEE77AC7ED0B7A23E197F83730BA8EE5
S315080C4FF060492C2000FB02F24FF4305000FB03F3FF
S315080C500013440B4424331A68BB8E9A4212D90123D3
S315080C501087F8273097F83730BA8E56492C2000FB7C
S315080C502002F24FF4305000FB03F313440B442433C1
S315080C503000221A600323BB6297F82730012B6BD129
S315080C504097F83730BA8E4B492C2000FB02F24FF4F6
S315080C5050305000FB03F313440B4428331B78012B05
S315080C50602DD197F83730BA8E97F83710B88E414C41
S315080C50702C2505FB00F04FF4305505FB01F10144D6
S315080C50802144203191ED007A97F83700B98E3A4CC5
S315080C509000020144490121440831D1ED007A77EE2A
S315080C50A0277A34492C2000FB02F24FF4305000FBCF
S315080C50B003F313440B442033C3ED007A2CE097F822
S315080C50C03730BA8E97F83710B88E2A4C2C2505FB34
S315080C50D000F04FF4305505FB01F101442144203111
S315080C50E091ED007A97F83700B98E234C00020144EB
S315080C50F0490121440831D1ED007A77EE677A1D49CA
S315080C51002C2000FB02F24FF4305000FB03F313443F
S315080C51100B442033C3ED007A97F83730BA8E15490D
S315080C51202C2000FB02F24FF4305000FB03F313441F
S315080C51300B44143393ED007AD7ED0B7AB4EEE77A79
S315080C5140F1EE10FA1AD897F83730BA8E09492C208E
S315080C515000FB02F24FF4305000FB03F313440B44EC
S315080C5160283300221A7030E018BF00203886012038
S315080C5170E0FFFF48282E01206C39032097F83730BA
S315080C5180BA8E60492C2000FB02F24FF4305000FB1B
S315080C519003F313440B44103393ED007AD7ED0B7AD3
S315080C51A0B4EEE77AF1EE10FA0FDB97F83730BA8ED1
S315080C51B054492C2000FB02F24FF4305000FB03F349
S315080C51C013440B44283301221A7097F83720BB8EE8
S315080C51D04D49120213445B010B44083393ED007AD4
S315080C51E0D7ED0B6AC6EE877AFDEEE77A17EE900ACC
S315080C51F097F83720BB8E4449120213445B010B44C3
S315080C52000C331B78013B00FA03F307EE903AF8EEE1
S315080C5210E77AC7ED0B7AD7ED0B7AFDEEE77A17EE40
S315080C5220903A23F0604307EE903AF8EEE77AC7ED2A
S315080C52300B7A97F82730012B07D097F82630012BD5
S315080C524003D097F82530012B1DD17B7F012B1AD063
S315080C5250FA7D97F833301B021343D7ED0B7AFDEE24
S315080C5260E77A17EE902A1A43BB6A5B071A43BB699F
S315080C52701A603B461846FCF7FFFC002387F82730D4
S315080C5280002387F825307B7F012B26D1FA7D97F8EA
S315080C529033301B021A43D7ED0B7AFDEEE77A17EE7D
S315080C52A0903A9B021A43BB6A5B071A43BB691A609E
S315080C52B03B461846FCF7E0FCFA7D97F833301B02A0
S315080C52C01A433B6A9B021A43BB6A5B071A43BB69C0
S315080C52D01A603B461846FCF7CFFCBB8E0133BB86DF
S315080C52E0BB8EFF2B7FF6D3AB97F83730013387F895
S315080C52F0373097F83730012B7FF6C5AB00BF3837F8
S315080C5300BD46B0BD282E01206C39032080B584B06B
S315080C531000AF78600023FB73164B1B6807F10F026E
S315080C5320002118461CF0CAFE134B1B78002BF3D031
S315080C5330124B1B78002BEFD0114B1B68142B13D96F
S315080C53400F4B16221A600F4B1B78002B06D00D4BF1
S315080C535000221A70FCF782FEFEF748FE0A4B012261
S315080C53601A70FFF7CFFAD7E7054B1B680133044AC7
S315080C53701360D1E7201E0120D0890320D189032090
S315080C53803C8601201CBF0020242E012080B500AFCE
S315080C5390094B1B8801339AB2074B1A80064B1B889C
S315080C53A0002B07D0044B00221A80044B1B681846A6
S315080C53B01CF052FF00BF80BD40860120201E012034
S315080C53C080B582B000AF0023FB8000201CF008FEDD
S315080C53D002460D4B1A600023FB8007E0FB880B4A3C
S315080C53E00B4942F82310FB880133FB80FB88B3F585
S315080C53F0806FF3D30623074A002107481CF062FA8C
S315080C540000BF0837BD4680BD201E0120241E012082
S315080C5410ADDEADDE242E01200D530C0890B583B0FD
S315080C542000AF0023FB800023BB800123FB8053E0E5
S315080C54302E4B93F85730012B17D10023BB8011E064
S315080C5440BB881B012A4A1344191DBB88284A1B0111
S315080C5450134402331A88BB88184623F08DFCBB8884
S315080C54600133BB80BB88022BEAD9FB88214A1B0176
S315080C5470134402331B88B3F58C7F14D1FB881B01AC
S315080C54801C4A13441A1DFB881146184625F0ACFE17
S315080C5490FB881B01184A13441A1DFB88114618462B
S315080C54A025F0A2FE09E0FB881B01124A13441A1DBB
S315080C54B0FB881146184625F013FFFA88FB880F4916
S315080C54C0120111440B4A1B0113440C460FCB84E8FA
S315080C54D00F00FB880133FB80094B1B88FA889A421C
S315080C54E0A6D900BF0C37BD4690BD00BFF41780C1C6
S315080C54F050DF002050BF002050CF002084DF002052
S315080C55006C79032080B487B000AF87ED030AC7ED2A
